{
  "contractName": "FlightSuretyData",
  "abi": [
    {
      "inputs": [
        {
          "internalType": "string",
          "name": "firstAirlineName",
          "type": "string"
        },
        {
          "internalType": "address",
          "name": "firstAirlineAddress",
          "type": "address"
        }
      ],
      "payable": false,
      "stateMutability": "nonpayable",
      "type": "constructor"
    },
    {
      "anonymous": false,
      "inputs": [
        {
          "indexed": false,
          "internalType": "address",
          "name": "passenger",
          "type": "address"
        },
        {
          "indexed": false,
          "internalType": "uint256",
          "name": "amount",
          "type": "uint256"
        }
      ],
      "name": "AccountWithdrawn",
      "type": "event"
    },
    {
      "anonymous": false,
      "inputs": [
        {
          "indexed": false,
          "internalType": "string",
          "name": "name",
          "type": "string"
        },
        {
          "indexed": false,
          "internalType": "address",
          "name": "addr",
          "type": "address"
        }
      ],
      "name": "AirlineFunded",
      "type": "event"
    },
    {
      "anonymous": false,
      "inputs": [
        {
          "indexed": false,
          "internalType": "string",
          "name": "name",
          "type": "string"
        },
        {
          "indexed": false,
          "internalType": "address",
          "name": "addr",
          "type": "address"
        }
      ],
      "name": "AirlineRegistered",
      "type": "event"
    },
    {
      "anonymous": false,
      "inputs": [
        {
          "indexed": false,
          "internalType": "bytes32",
          "name": "flightKey",
          "type": "bytes32"
        },
        {
          "indexed": false,
          "internalType": "address",
          "name": "airline",
          "type": "address"
        },
        {
          "indexed": false,
          "internalType": "string",
          "name": "flight",
          "type": "string"
        },
        {
          "indexed": false,
          "internalType": "string",
          "name": "from",
          "type": "string"
        },
        {
          "indexed": false,
          "internalType": "string",
          "name": "to",
          "type": "string"
        },
        {
          "indexed": false,
          "internalType": "uint256",
          "name": "timestamp",
          "type": "uint256"
        }
      ],
      "name": "FlightRegistered",
      "type": "event"
    },
    {
      "anonymous": false,
      "inputs": [
        {
          "indexed": false,
          "internalType": "address",
          "name": "airline",
          "type": "address"
        },
        {
          "indexed": false,
          "internalType": "string",
          "name": "flight",
          "type": "string"
        },
        {
          "indexed": false,
          "internalType": "uint256",
          "name": "timestamp",
          "type": "uint256"
        },
        {
          "indexed": false,
          "internalType": "uint8",
          "name": "statusCode",
          "type": "uint8"
        }
      ],
      "name": "FlightStatusUpdated",
      "type": "event"
    },
    {
      "anonymous": false,
      "inputs": [
        {
          "indexed": false,
          "internalType": "address",
          "name": "airline",
          "type": "address"
        },
        {
          "indexed": false,
          "internalType": "string",
          "name": "flight",
          "type": "string"
        },
        {
          "indexed": false,
          "internalType": "uint256",
          "name": "timestamp",
          "type": "uint256"
        },
        {
          "indexed": false,
          "internalType": "address",
          "name": "passenger",
          "type": "address"
        },
        {
          "indexed": false,
          "internalType": "uint256",
          "name": "amount",
          "type": "uint256"
        },
        {
          "indexed": false,
          "internalType": "uint256",
          "name": "multiplier",
          "type": "uint256"
        }
      ],
      "name": "InsuranceBought",
      "type": "event"
    },
    {
      "anonymous": false,
      "inputs": [
        {
          "indexed": false,
          "internalType": "address",
          "name": "passenger",
          "type": "address"
        },
        {
          "indexed": false,
          "internalType": "uint256",
          "name": "amount",
          "type": "uint256"
        }
      ],
      "name": "InsureeCredited",
      "type": "event"
    },
    {
      "payable": true,
      "stateMutability": "payable",
      "type": "fallback"
    },
    {
      "constant": true,
      "inputs": [
        {
          "internalType": "address",
          "name": "",
          "type": "address"
        }
      ],
      "name": "pendingPayments",
      "outputs": [
        {
          "internalType": "uint256",
          "name": "",
          "type": "uint256"
        }
      ],
      "payable": false,
      "stateMutability": "view",
      "type": "function"
    },
    {
      "constant": true,
      "inputs": [],
      "name": "isOperational",
      "outputs": [
        {
          "internalType": "bool",
          "name": "",
          "type": "bool"
        }
      ],
      "payable": false,
      "stateMutability": "view",
      "type": "function"
    },
    {
      "constant": true,
      "inputs": [
        {
          "internalType": "address",
          "name": "airline",
          "type": "address"
        }
      ],
      "name": "getAirlineName",
      "outputs": [
        {
          "internalType": "string",
          "name": "",
          "type": "string"
        }
      ],
      "payable": false,
      "stateMutability": "view",
      "type": "function"
    },
    {
      "constant": true,
      "inputs": [
        {
          "internalType": "address",
          "name": "airline",
          "type": "address"
        }
      ],
      "name": "isAirline",
      "outputs": [
        {
          "internalType": "bool",
          "name": "",
          "type": "bool"
        }
      ],
      "payable": false,
      "stateMutability": "view",
      "type": "function"
    },
    {
      "constant": true,
      "inputs": [
        {
          "internalType": "address",
          "name": "airline",
          "type": "address"
        }
      ],
      "name": "isFundedAirline",
      "outputs": [
        {
          "internalType": "bool",
          "name": "",
          "type": "bool"
        }
      ],
      "payable": false,
      "stateMutability": "view",
      "type": "function"
    },
    {
      "constant": true,
      "inputs": [],
      "name": "getRegisteredAirlines",
      "outputs": [
        {
          "internalType": "address[]",
          "name": "",
          "type": "address[]"
        }
      ],
      "payable": false,
      "stateMutability": "view",
      "type": "function"
    },
    {
      "constant": true,
      "inputs": [
        {
          "internalType": "address",
          "name": "airline",
          "type": "address"
        },
        {
          "internalType": "string",
          "name": "flight",
          "type": "string"
        },
        {
          "internalType": "uint256",
          "name": "timestamp",
          "type": "uint256"
        }
      ],
      "name": "getFlightStatusCode",
      "outputs": [
        {
          "internalType": "uint8",
          "name": "",
          "type": "uint8"
        }
      ],
      "payable": false,
      "stateMutability": "view",
      "type": "function"
    },
    {
      "constant": true,
      "inputs": [
        {
          "internalType": "address",
          "name": "airline",
          "type": "address"
        },
        {
          "internalType": "string",
          "name": "flight",
          "type": "string"
        },
        {
          "internalType": "uint256",
          "name": "timestamp",
          "type": "uint256"
        }
      ],
      "name": "isFlight",
      "outputs": [
        {
          "internalType": "bool",
          "name": "",
          "type": "bool"
        }
      ],
      "payable": false,
      "stateMutability": "view",
      "type": "function"
    },
    {
      "constant": true,
      "inputs": [
        {
          "internalType": "address",
          "name": "airline",
          "type": "address"
        },
        {
          "internalType": "string",
          "name": "flight",
          "type": "string"
        },
        {
          "internalType": "uint256",
          "name": "timestamp",
          "type": "uint256"
        }
      ],
      "name": "isLandedFlight",
      "outputs": [
        {
          "internalType": "bool",
          "name": "",
          "type": "bool"
        }
      ],
      "payable": false,
      "stateMutability": "view",
      "type": "function"
    },
    {
      "constant": true,
      "inputs": [
        {
          "internalType": "address",
          "name": "passenger",
          "type": "address"
        },
        {
          "internalType": "address",
          "name": "airline",
          "type": "address"
        },
        {
          "internalType": "string",
          "name": "flight",
          "type": "string"
        },
        {
          "internalType": "uint256",
          "name": "timestamp",
          "type": "uint256"
        }
      ],
      "name": "isInsured",
      "outputs": [
        {
          "internalType": "bool",
          "name": "",
          "type": "bool"
        }
      ],
      "payable": false,
      "stateMutability": "view",
      "type": "function"
    },
    {
      "constant": true,
      "inputs": [
        {
          "internalType": "address",
          "name": "passenger",
          "type": "address"
        }
      ],
      "name": "getPendingPaymentAmount",
      "outputs": [
        {
          "internalType": "uint256",
          "name": "",
          "type": "uint256"
        }
      ],
      "payable": false,
      "stateMutability": "view",
      "type": "function"
    },
    {
      "constant": false,
      "inputs": [
        {
          "internalType": "bool",
          "name": "mode",
          "type": "bool"
        }
      ],
      "name": "setOperatingStatus",
      "outputs": [],
      "payable": false,
      "stateMutability": "nonpayable",
      "type": "function"
    },
    {
      "constant": false,
      "inputs": [
        {
          "internalType": "address",
          "name": "contractAddress",
          "type": "address"
        }
      ],
      "name": "authorizeCaller",
      "outputs": [],
      "payable": false,
      "stateMutability": "nonpayable",
      "type": "function"
    },
    {
      "constant": false,
      "inputs": [
        {
          "internalType": "address",
          "name": "contractAddress",
          "type": "address"
        }
      ],
      "name": "deauthorizeCaller",
      "outputs": [],
      "payable": false,
      "stateMutability": "nonpayable",
      "type": "function"
    },
    {
      "constant": false,
      "inputs": [
        {
          "internalType": "string",
          "name": "name",
          "type": "string"
        },
        {
          "internalType": "address",
          "name": "addr",
          "type": "address"
        }
      ],
      "name": "registerAirline",
      "outputs": [
        {
          "internalType": "bool",
          "name": "success",
          "type": "bool"
        }
      ],
      "payable": false,
      "stateMutability": "nonpayable",
      "type": "function"
    },
    {
      "constant": false,
      "inputs": [
        {
          "internalType": "address",
          "name": "addr",
          "type": "address"
        }
      ],
      "name": "fundAirline",
      "outputs": [],
      "payable": false,
      "stateMutability": "nonpayable",
      "type": "function"
    },
    {
      "constant": false,
      "inputs": [
        {
          "internalType": "address",
          "name": "airline",
          "type": "address"
        },
        {
          "internalType": "string",
          "name": "flight",
          "type": "string"
        },
        {
          "internalType": "string",
          "name": "from",
          "type": "string"
        },
        {
          "internalType": "string",
          "name": "to",
          "type": "string"
        },
        {
          "internalType": "uint256",
          "name": "timestamp",
          "type": "uint256"
        }
      ],
      "name": "registerFlight",
      "outputs": [],
      "payable": false,
      "stateMutability": "nonpayable",
      "type": "function"
    },
    {
      "constant": false,
      "inputs": [
        {
          "internalType": "address",
          "name": "airline",
          "type": "address"
        },
        {
          "internalType": "string",
          "name": "flight",
          "type": "string"
        },
        {
          "internalType": "uint256",
          "name": "timestamp",
          "type": "uint256"
        },
        {
          "internalType": "uint8",
          "name": "statusCode",
          "type": "uint8"
        }
      ],
      "name": "processFlightStatus",
      "outputs": [],
      "payable": false,
      "stateMutability": "nonpayable",
      "type": "function"
    },
    {
      "constant": false,
      "inputs": [
        {
          "internalType": "address",
          "name": "airline",
          "type": "address"
        },
        {
          "internalType": "string",
          "name": "flight",
          "type": "string"
        },
        {
          "internalType": "uint256",
          "name": "timestamp",
          "type": "uint256"
        },
        {
          "internalType": "address",
          "name": "passenger",
          "type": "address"
        },
        {
          "internalType": "uint256",
          "name": "amount",
          "type": "uint256"
        },
        {
          "internalType": "uint256",
          "name": "multiplier",
          "type": "uint256"
        }
      ],
      "name": "buy",
      "outputs": [],
      "payable": false,
      "stateMutability": "nonpayable",
      "type": "function"
    },
    {
      "constant": false,
      "inputs": [
        {
          "internalType": "address",
          "name": "passenger",
          "type": "address"
        }
      ],
      "name": "pay",
      "outputs": [],
      "payable": false,
      "stateMutability": "nonpayable",
      "type": "function"
    },
    {
      "constant": false,
      "inputs": [],
      "name": "fund",
      "outputs": [],
      "payable": true,
      "stateMutability": "payable",
      "type": "function"
    }
  ],
  "bytecode": "0x60806040524260015560016002556001600360006101000a81548160ff0219169083151502179055506000604051908082528060200260200182016040528015620000595781602001602082028038833980820191505090505b50600490805190602001906200007192919062000377565b506000604051908082528060200260200182016040528015620000a35781602001602082028038833980820191505090505b5060079080519060200190620000bb92919062000377565b506000604051908082528060200260200182016040528015620000ed5781602001602082028038833980820191505090505b50600990805190602001906200010592919062000406565b503480156200011357600080fd5b5060405162003c6538038062003c65833981810160405260408110156200013957600080fd5b81019080805160405193929190846401000000008211156200015a57600080fd5b838201915060208201858111156200017157600080fd5b82518660018202830111640100000000821117156200018f57600080fd5b8083526020830192505050908051906020019080838360005b83811015620001c5578082015181840152602081019050620001a8565b50505050905090810190601f168015620001f35780820380516001836020036101000a031916815260200191505b5060405260200180519060200190929190505050336000806101000a81548173ffffffffffffffffffffffffffffffffffffffff021916908373ffffffffffffffffffffffffffffffffffffffff160217905550604051806060016040528083815260200160001515815260200160011515815250600660008373ffffffffffffffffffffffffffffffffffffffff1673ffffffffffffffffffffffffffffffffffffffff1681526020019081526020016000206000820151816000019080519060200190620002c592919062000458565b5060208201518160010160006101000a81548160ff02191690831515021790555060408201518160010160016101000a81548160ff02191690831515021790555090505060078190806001815401808255809150509060018203906000526020600020016000909192909190916101000a81548173ffffffffffffffffffffffffffffffffffffffff021916908373ffffffffffffffffffffffffffffffffffffffff16021790555050505062000575565b828054828255906000526020600020908101928215620003f3579160200282015b82811115620003f25782518260006101000a81548173ffffffffffffffffffffffffffffffffffffffff021916908373ffffffffffffffffffffffffffffffffffffffff1602179055509160200191906001019062000398565b5b509050620004029190620004df565b5090565b82805482825590600052602060002090810192821562000445579160200282015b828111156200044457825182559160200191906001019062000427565b5b50905062000454919062000525565b5090565b828054600181600116156101000203166002900490600052602060002090601f016020900481019282601f106200049b57805160ff1916838001178555620004cc565b82800160010185558215620004cc579182015b82811115620004cb578251825591602001919060010190620004ae565b5b509050620004db91906200054d565b5090565b6200052291905b808211156200051e57600081816101000a81549073ffffffffffffffffffffffffffffffffffffffff021916905550600101620004e6565b5090565b90565b6200054a91905b80821115620005465760008160009055506001016200052c565b5090565b90565b6200057291905b808211156200056e57600081600090555060010162000554565b5090565b90565b6136e080620005856000396000f3fe60806040526004361061012a5760003560e01c80637f38e526116100ab578063c23bcf091161006f578063c23bcf09146108d8578063c5e16c1e14610944578063cd905dff14610a9e578063e6143d9514610acd578063e7bdde3b14610b95578063f3ba4e1b14610c525761012a565b80637f38e52614610638578063a22a1af51461069d578063a283fd0014610781578063b60d4288146107e6578063c19b4fae146107f05761012a565b80632c388d5d116100f25780632c388d5d146103b1578063351ba61b14610402578063524b6100146104cc5780636873c21d146105965780636fbb8798146105e75761012a565b8063015ea1a0146101345780630c11dedd146101fc5780630e248a111461024d5780630e2c4129146102b6578063110466ed14610374575b610132610cbb565b005b34801561014057600080fd5b506101e26004803603606081101561015757600080fd5b81019080803573ffffffffffffffffffffffffffffffffffffffff1690602001909291908035906020019064010000000081111561019457600080fd5b8201836020820111156101a657600080fd5b803590602001918460018302840111640100000000831117156101c857600080fd5b909192939192939080359060200190929190505050610d1a565b604051808215151515815260200191505060405180910390f35b34801561020857600080fd5b5061024b6004803603602081101561021f57600080fd5b81019080803573ffffffffffffffffffffffffffffffffffffffff169060200190929190505050610da0565b005b34801561025957600080fd5b5061029c6004803603602081101561027057600080fd5b81019080803573ffffffffffffffffffffffffffffffffffffffff169060200190929190505050611147565b604051808215151515815260200191505060405180910390f35b3480156102c257600080fd5b5061035a600480360360408110156102d957600080fd5b81019080803590602001906401000000008111156102f657600080fd5b82018360208201111561030857600080fd5b8035906020019184600183028401116401000000008311171561032a57600080fd5b9091929391929390803573ffffffffffffffffffffffffffffffffffffffff1690602001909291905050506111a0565b604051808215151515815260200191505060405180910390f35b34801561038057600080fd5b506103af6004803603602081101561039757600080fd5b81019080803515159060200190929190505050611611565b005b3480156103bd57600080fd5b50610400600480360360208110156103d457600080fd5b81019080803573ffffffffffffffffffffffffffffffffffffffff169060200190929190505050611909565b005b34801561040e57600080fd5b506104b06004803603606081101561042557600080fd5b81019080803573ffffffffffffffffffffffffffffffffffffffff1690602001909291908035906020019064010000000081111561046257600080fd5b82018360208201111561047457600080fd5b8035906020019184600183028401116401000000008311171561049657600080fd5b909192939192939080359060200190929190505050611a13565b604051808260ff1660ff16815260200191505060405180910390f35b3480156104d857600080fd5b5061051b600480360360208110156104ef57600080fd5b81019080803573ffffffffffffffffffffffffffffffffffffffff169060200190929190505050611a91565b6040518080602001828103825283818151815260200191508051906020019080838360005b8381101561055b578082015181840152602081019050610540565b50505050905090810190601f1680156105885780820380516001836020036101000a031916815260200191505b509250505060405180910390f35b3480156105a257600080fd5b506105e5600480360360208110156105b957600080fd5b81019080803573ffffffffffffffffffffffffffffffffffffffff169060200190929190505050611b75565b005b3480156105f357600080fd5b506106366004803603602081101561060a57600080fd5b81019080803573ffffffffffffffffffffffffffffffffffffffff169060200190929190505050611c7d565b005b34801561064457600080fd5b506106876004803603602081101561065b57600080fd5b81019080803573ffffffffffffffffffffffffffffffffffffffff169060200190929190505050611f1b565b6040518082815260200191505060405180910390f35b3480156106a957600080fd5b5061077f600480360360c08110156106c057600080fd5b81019080803573ffffffffffffffffffffffffffffffffffffffff169060200190929190803590602001906401000000008111156106fd57600080fd5b82018360208201111561070f57600080fd5b8035906020019184600183028401116401000000008311171561073157600080fd5b909192939192939080359060200190929190803573ffffffffffffffffffffffffffffffffffffffff1690602001909291908035906020019092919080359060200190929190505050611f33565b005b34801561078d57600080fd5b506107d0600480360360208110156107a457600080fd5b81019080803573ffffffffffffffffffffffffffffffffffffffff16906020019092919050505061227b565b6040518082815260200191505060405180910390f35b6107ee610cbb565b005b3480156107fc57600080fd5b506108be6004803603608081101561081357600080fd5b81019080803573ffffffffffffffffffffffffffffffffffffffff169060200190929190803573ffffffffffffffffffffffffffffffffffffffff1690602001909291908035906020019064010000000081111561087057600080fd5b82018360208201111561088257600080fd5b803590602001918460018302840111640100000000831117156108a457600080fd5b9091929391929390803590602001909291905050506122c4565b604051808215151515815260200191505060405180910390f35b3480156108e457600080fd5b506108ed612488565b6040518080602001828103825283818151815260200191508051906020019060200280838360005b83811015610930578082015181840152602081019050610915565b505050509050019250505060405180910390f35b34801561095057600080fd5b50610a9c600480360360a081101561096757600080fd5b81019080803573ffffffffffffffffffffffffffffffffffffffff169060200190929190803590602001906401000000008111156109a457600080fd5b8201836020820111156109b657600080fd5b803590602001918460018302840111640100000000831117156109d857600080fd5b9091929391929390803590602001906401000000008111156109f957600080fd5b820183602082011115610a0b57600080fd5b80359060200191846001830284011164010000000083111715610a2d57600080fd5b909192939192939080359060200190640100000000811115610a4e57600080fd5b820183602082011115610a6057600080fd5b80359060200191846001830284011164010000000083111715610a8257600080fd5b909192939192939080359060200190929190505050612516565b005b348015610aaa57600080fd5b50610ab3612c0a565b604051808215151515815260200191505060405180910390f35b348015610ad957600080fd5b50610b7b60048036036060811015610af057600080fd5b81019080803573ffffffffffffffffffffffffffffffffffffffff16906020019092919080359060200190640100000000811115610b2d57600080fd5b820183602082011115610b3f57600080fd5b80359060200191846001830284011164010000000083111715610b6157600080fd5b909192939192939080359060200190929190505050612c21565b604051808215151515815260200191505060405180910390f35b348015610ba157600080fd5b50610c5060048036036080811015610bb857600080fd5b81019080803573ffffffffffffffffffffffffffffffffffffffff16906020019092919080359060200190640100000000811115610bf557600080fd5b820183602082011115610c0757600080fd5b80359060200191846001830284011164010000000083111715610c2957600080fd5b909192939192939080359060200190929190803560ff169060200190929190505050612c9f565b005b348015610c5e57600080fd5b50610ca160048036036020811015610c7557600080fd5b81019080803573ffffffffffffffffffffffffffffffffffffffff169060200190929190505050612f7a565b604051808215151515815260200191505060405180910390f35b610cc3612c0a565b610d18576040517f08c379a00000000000000000000000000000000000000000000000000000000081526004018080602001828103825260258152602001806136646025913960400191505060405180910390fd5b565b60008060ff1660086000610d738888888080601f016020809104026020016040519081016040528093929190818152602001838380828437600081840152601f19601f8201169050808301925050505050505087612fd3565b815260200190815260200160002060000160019054906101000a900460ff1660ff16119050949350505050565b610da8612c0a565b610dfd576040517f08c379a00000000000000000000000000000000000000000000000000000000081526004018080602001828103825260258152602001806136646025913960400191505060405180910390fd5b6001600560003373ffffffffffffffffffffffffffffffffffffffff1673ffffffffffffffffffffffffffffffffffffffff1681526020019081526020016000205414610eb2576040517f08c379a00000000000000000000000000000000000000000000000000000000081526004018080602001828103825260188152602001807f43616c6c6572206973206e6f7420617574686f72697a6564000000000000000081525060200191505060405180910390fd5b3273ffffffffffffffffffffffffffffffffffffffff168173ffffffffffffffffffffffffffffffffffffffff1614610f53576040517f08c379a00000000000000000000000000000000000000000000000000000000081526004018080602001828103825260158152602001807f436f6e747261637473206e6f7420616c6c6f776564000000000000000000000081525060200191505060405180910390fd5b6000600b60008373ffffffffffffffffffffffffffffffffffffffff1673ffffffffffffffffffffffffffffffffffffffff1681526020019081526020016000205411611008576040517f08c379a00000000000000000000000000000000000000000000000000000000081526004018080602001828103825260208152602001807f4e6f2066756e6420617661696c61626c6520666f72207769746864726177616c81525060200191505060405180910390fd5b6000600b60008373ffffffffffffffffffffffffffffffffffffffff1673ffffffffffffffffffffffffffffffffffffffff1681526020019081526020016000205490506000600b60008473ffffffffffffffffffffffffffffffffffffffff1673ffffffffffffffffffffffffffffffffffffffff168152602001908152602001600020819055508173ffffffffffffffffffffffffffffffffffffffff166108fc829081150290604051600060405180830381858888f193505050501580156110d7573d6000803e3d6000fd5b507fdfeacc538b4e5daa9b6f7bd5267be179488543805cd27e8022d2883a4dc847d78282604051808373ffffffffffffffffffffffffffffffffffffffff1673ffffffffffffffffffffffffffffffffffffffff1681526020018281526020019250505060405180910390a15050565b6000600660008373ffffffffffffffffffffffffffffffffffffffff1673ffffffffffffffffffffffffffffffffffffffff16815260200190815260200160002060010160019054906101000a900460ff169050919050565b60006111aa612c0a565b6111ff576040517f08c379a00000000000000000000000000000000000000000000000000000000081526004018080602001828103825260258152602001806136646025913960400191505060405180910390fd5b6001600560003373ffffffffffffffffffffffffffffffffffffffff1673ffffffffffffffffffffffffffffffffffffffff16815260200190815260200160002054146112b4576040517f08c379a00000000000000000000000000000000000000000000000000000000081526004018080602001828103825260188152602001807f43616c6c6572206973206e6f7420617574686f72697a6564000000000000000081525060200191505060405180910390fd5b81600073ffffffffffffffffffffffffffffffffffffffff168173ffffffffffffffffffffffffffffffffffffffff161415611358576040517f08c379a000000000000000000000000000000000000000000000000000000000815260040180806020018281038252600f8152602001807f496e76616c69642061646472657373000000000000000000000000000000000081525060200191505060405180910390fd5b600660008473ffffffffffffffffffffffffffffffffffffffff1673ffffffffffffffffffffffffffffffffffffffff16815260200190815260200160002060010160019054906101000a900460ff16156113fe576040517f08c379a00000000000000000000000000000000000000000000000000000000081526004018080602001828103825260238152602001806136896023913960400191505060405180910390fd5b600060019050604051806060016040528087878080601f016020809104026020016040519081016040528093929190818152602001838380828437600081840152601f19601f82011690508083019250505050505050815260200160001515815260200160011515815250600660008673ffffffffffffffffffffffffffffffffffffffff1673ffffffffffffffffffffffffffffffffffffffff16815260200190815260200160002060008201518160000190805190602001906114c492919061340d565b5060208201518160010160006101000a81548160ff02191690831515021790555060408201518160010160016101000a81548160ff02191690831515021790555090505060078490806001815401808255809150509060018203906000526020600020016000909192909190916101000a81548173ffffffffffffffffffffffffffffffffffffffff021916908373ffffffffffffffffffffffffffffffffffffffff160217905550507f4389233d1d7e817e3a41447176300b89c596c24ed4d58896d501ddb378abe2c486868660405180806020018373ffffffffffffffffffffffffffffffffffffffff1673ffffffffffffffffffffffffffffffffffffffff1681526020018281038252858582818152602001925080828437600081840152601f19601f82011690508083019250505094505050505060405180910390a180925050509392505050565b6000809054906101000a900473ffffffffffffffffffffffffffffffffffffffff1673ffffffffffffffffffffffffffffffffffffffff163373ffffffffffffffffffffffffffffffffffffffff16146116d3576040517f08c379a000000000000000000000000000000000000000000000000000000000815260040180806020018281038252601c8152602001807f43616c6c6572206973206e6f7420636f6e7472616374206f776e65720000000081525060200191505060405180910390fd5b600360009054906101000a900460ff161515811515141561173f576040517f08c379a000000000000000000000000000000000000000000000000000000000815260040180806020018281038252602d81526020018061360a602d913960400191505060405180910390fd5b600080905060008090505b6004805490508110156117d8573373ffffffffffffffffffffffffffffffffffffffff166004828154811061177b57fe5b9060005260206000200160009054906101000a900473ffffffffffffffffffffffffffffffffffffffff1673ffffffffffffffffffffffffffffffffffffffff1614156117cb57600191506117d8565b808060010191505061174a565b508015611830576040517f08c379a00000000000000000000000000000000000000000000000000000000081526004018080602001828103825260288152602001806135e26028913960400191505060405180910390fd5b60043390806001815401808255809150509060018203906000526020600020016000909192909190916101000a81548173ffffffffffffffffffffffffffffffffffffffff021916908373ffffffffffffffffffffffffffffffffffffffff160217905550506001600480549050106119055781600360006101000a81548160ff02191690831515021790555060006040519080825280602002602001820160405280156118ed5781602001602082028038833980820191505090505b506004908051906020019061190392919061348d565b505b5050565b6000809054906101000a900473ffffffffffffffffffffffffffffffffffffffff1673ffffffffffffffffffffffffffffffffffffffff163373ffffffffffffffffffffffffffffffffffffffff16146119cb576040517f08c379a000000000000000000000000000000000000000000000000000000000815260040180806020018281038252601c8152602001807f43616c6c6572206973206e6f7420636f6e7472616374206f776e65720000000081525060200191505060405180910390fd5b6001600560008373ffffffffffffffffffffffffffffffffffffffff1673ffffffffffffffffffffffffffffffffffffffff1681526020019081526020016000208190555050565b600060086000611a688787878080601f016020809104026020016040519081016040528093929190818152602001838380828437600081840152601f19601f8201169050808301925050505050505086612fd3565b815260200190815260200160002060000160019054906101000a900460ff169050949350505050565b6060600660008373ffffffffffffffffffffffffffffffffffffffff1673ffffffffffffffffffffffffffffffffffffffff1681526020019081526020016000206000018054600181600116156101000203166002900480601f016020809104026020016040519081016040528092919081815260200182805460018160011615610100020316600290048015611b695780601f10611b3e57610100808354040283529160200191611b69565b820191906000526020600020905b815481529060010190602001808311611b4c57829003601f168201915b50505050509050919050565b6000809054906101000a900473ffffffffffffffffffffffffffffffffffffffff1673ffffffffffffffffffffffffffffffffffffffff163373ffffffffffffffffffffffffffffffffffffffff1614611c37576040517f08c379a000000000000000000000000000000000000000000000000000000000815260040180806020018281038252601c8152602001807f43616c6c6572206973206e6f7420636f6e7472616374206f776e65720000000081525060200191505060405180910390fd5b600560008273ffffffffffffffffffffffffffffffffffffffff1673ffffffffffffffffffffffffffffffffffffffff1681526020019081526020016000206000905550565b611c85612c0a565b611cda576040517f08c379a00000000000000000000000000000000000000000000000000000000081526004018080602001828103825260258152602001806136646025913960400191505060405180910390fd5b6001600560003373ffffffffffffffffffffffffffffffffffffffff1673ffffffffffffffffffffffffffffffffffffffff1681526020019081526020016000205414611d8f576040517f08c379a00000000000000000000000000000000000000000000000000000000081526004018080602001828103825260188152602001807f43616c6c6572206973206e6f7420617574686f72697a6564000000000000000081525060200191505060405180910390fd5b6001600660008373ffffffffffffffffffffffffffffffffffffffff1673ffffffffffffffffffffffffffffffffffffffff16815260200190815260200160002060010160006101000a81548160ff0219169083151502179055507fb79e695bf38dcea3887c0922d0f819d2c35e4197231fb49fc074b143a81feae2600660008373ffffffffffffffffffffffffffffffffffffffff1673ffffffffffffffffffffffffffffffffffffffff1681526020019081526020016000206000018260405180806020018373ffffffffffffffffffffffffffffffffffffffff1673ffffffffffffffffffffffffffffffffffffffff168152602001828103825284818154600181600116156101000203166002900481526020019150805460018160011615610100020316600290048015611f095780601f10611ede57610100808354040283529160200191611f09565b820191906000526020600020905b815481529060010190602001808311611eec57829003601f168201915b5050935050505060405180910390a150565b600b6020528060005260406000206000915090505481565b611f3b612c0a565b611f90576040517f08c379a00000000000000000000000000000000000000000000000000000000081526004018080602001828103825260258152602001806136646025913960400191505060405180910390fd5b6001600560003373ffffffffffffffffffffffffffffffffffffffff1673ffffffffffffffffffffffffffffffffffffffff1681526020019081526020016000205414612045576040517f08c379a00000000000000000000000000000000000000000000000000000000081526004018080602001828103825260188152602001807f43616c6c6572206973206e6f7420617574686f72697a6564000000000000000081525060200191505060405180910390fd5b60006120968888888080601f016020809104026020016040519081016040528093929190818152602001838380828437600081840152601f19601f8201169050808301925050505050505087612fd3565b9050600a600082815260200190815260200160002060405180608001604052808673ffffffffffffffffffffffffffffffffffffffff168152602001858152602001848152602001600015158152509080600181540180825580915050906001820390600052602060002090600402016000909192909190915060008201518160000160006101000a81548173ffffffffffffffffffffffffffffffffffffffff021916908373ffffffffffffffffffffffffffffffffffffffff160217905550602082015181600101556040820151816002015560608201518160030160006101000a81548160ff0219169083151502179055505050507fc1647762ee49a904197616f0bd3213b3b925a37d94f32d699214e1b76085821088888888888888604051808873ffffffffffffffffffffffffffffffffffffffff1673ffffffffffffffffffffffffffffffffffffffff168152602001806020018681526020018573ffffffffffffffffffffffffffffffffffffffff1673ffffffffffffffffffffffffffffffffffffffff1681526020018481526020018381526020018281038252888882818152602001925080828437600081840152601f19601f8201169050808301925050509850505050505050505060405180910390a15050505050505050565b6000600b60008373ffffffffffffffffffffffffffffffffffffffff1673ffffffffffffffffffffffffffffffffffffffff168152602001908152602001600020549050919050565b60006060600a600061231b8888888080601f016020809104026020016040519081016040528093929190818152602001838380828437600081840152601f19601f8201169050808301925050505050505087612fd3565b8152602001908152602001600020805480602002602001604051908101604052809291908181526020016000905b8282101561240057838290600052602060002090600402016040518060800160405290816000820160009054906101000a900473ffffffffffffffffffffffffffffffffffffffff1673ffffffffffffffffffffffffffffffffffffffff1673ffffffffffffffffffffffffffffffffffffffff16815260200160018201548152602001600282015481526020016003820160009054906101000a900460ff16151515158152505081526020019060010190612349565b50505050905060008090505b8151811015612478578773ffffffffffffffffffffffffffffffffffffffff1682828151811061243857fe5b60200260200101516000015173ffffffffffffffffffffffffffffffffffffffff16141561246b5760019250505061247f565b808060010191505061240c565b5060009150505b95945050505050565b6060600780548060200260200160405190810160405280929190818152602001828054801561250c57602002820191906000526020600020905b8160009054906101000a900473ffffffffffffffffffffffffffffffffffffffff1673ffffffffffffffffffffffffffffffffffffffff16815260200190600101908083116124c2575b5050505050905090565b61251e612c0a565b612573576040517f08c379a00000000000000000000000000000000000000000000000000000000081526004018080602001828103825260258152602001806136646025913960400191505060405180910390fd5b6001600560003373ffffffffffffffffffffffffffffffffffffffff1673ffffffffffffffffffffffffffffffffffffffff1681526020019081526020016000205414612628576040517f08c379a00000000000000000000000000000000000000000000000000000000081526004018080602001828103825260188152602001807f43616c6c6572206973206e6f7420617574686f72697a6564000000000000000081525060200191505060405180910390fd5b87600073ffffffffffffffffffffffffffffffffffffffff168173ffffffffffffffffffffffffffffffffffffffff1614156126cc576040517f08c379a000000000000000000000000000000000000000000000000000000000815260040180806020018281038252600f8152602001807f496e76616c69642061646472657373000000000000000000000000000000000081525060200191505060405180910390fd5b883073ffffffffffffffffffffffffffffffffffffffff1663f3ba4e1b826040518263ffffffff1660e01b8152600401808273ffffffffffffffffffffffffffffffffffffffff1673ffffffffffffffffffffffffffffffffffffffff16815260200191505060206040518083038186803b15801561274a57600080fd5b505afa15801561275e573d6000803e3d6000fd5b505050506040513d602081101561277457600080fd5b81019080805190602001909291905050506127da576040517f08c379a000000000000000000000000000000000000000000000000000000000815260040180806020018281038252602d815260200180613637602d913960400191505060405180910390fd5b600061282b8b8b8b8080601f016020809104026020016040519081016040528093929190818152602001838380828437600081840152601f19601f8201169050808301925050505050505086612fd3565b90506008600082815260200190815260200160002060000160009054906101000a900460ff16156128a7576040517f08c379a00000000000000000000000000000000000000000000000000000000081526004018080602001828103825260228152602001806135c06022913960400191505060405180910390fd5b6040518060e00160405280600115158152602001600060ff1681526020018581526020018c73ffffffffffffffffffffffffffffffffffffffff1681526020018b8b8080601f016020809104026020016040519081016040528093929190818152602001838380828437600081840152601f19601f82011690508083019250505050505050815260200189898080601f016020809104026020016040519081016040528093929190818152602001838380828437600081840152601f19601f82011690508083019250505050505050815260200187878080601f016020809104026020016040519081016040528093929190818152602001838380828437600081840152601f19601f820116905080830192505050505050508152506008600083815260200190815260200160002060008201518160000160006101000a81548160ff02191690831515021790555060208201518160000160016101000a81548160ff021916908360ff1602179055506040820151816001015560608201518160020160006101000a81548173ffffffffffffffffffffffffffffffffffffffff021916908373ffffffffffffffffffffffffffffffffffffffff1602179055506080820151816003019080519060200190612a8492919061340d565b5060a0820151816004019080519060200190612aa192919061340d565b5060c0820151816005019080519060200190612abe92919061340d565b5090505060098190806001815401808255809150509060018203906000526020600020016000909192909190915055507f37c1994f3df92b4103a59a8ac512e992643d17dd4273b59013aa2f5111b3de67818c8c8c8c8c8c8c8c604051808a81526020018973ffffffffffffffffffffffffffffffffffffffff1673ffffffffffffffffffffffffffffffffffffffff16815260200180602001806020018060200185815260200184810384528b8b82818152602001925080828437600081840152601f19601f8201169050808301925050508481038352898982818152602001925080828437600081840152601f19601f8201169050808301925050508481038252878782818152602001925080828437600081840152601f19601f8201169050808301925050509c5050505050505050505050505060405180910390a15050505050505050505050565b6000600360009054906101000a900460ff16905090565b600060086000612c768787878080601f016020809104026020016040519081016040528093929190818152602001838380828437600081840152601f19601f8201169050808301925050505050505086612fd3565b815260200190815260200160002060000160009054906101000a900460ff169050949350505050565b612ca7612c0a565b612cfc576040517f08c379a00000000000000000000000000000000000000000000000000000000081526004018080602001828103825260258152602001806136646025913960400191505060405180910390fd5b6001600560003373ffffffffffffffffffffffffffffffffffffffff1673ffffffffffffffffffffffffffffffffffffffff1681526020019081526020016000205414612db1576040517f08c379a00000000000000000000000000000000000000000000000000000000081526004018080602001828103825260188152602001807f43616c6c6572206973206e6f7420617574686f72697a6564000000000000000081525060200191505060405180910390fd5b6000612e028686868080601f016020809104026020016040519081016040528093929190818152602001838380828437600081840152601f19601f8201169050808301925050505050505085612fd3565b9050600060ff166008600083815260200190815260200160002060000160019054906101000a900460ff1660ff161415612ec557816008600083815260200190815260200160002060000160016101000a81548160ff021916908360ff160217905550601460ff168260ff161415612ec457612ec38686868080601f016020809104026020016040519081016040528093929190818152602001838380828437600081840152601f19601f820116905080830192505050505050508561308f565b5b5b7f3f8930fd52e84bc32c0c2e5d060a9cfa59066160d5197e39f17d16ebbcaa7db68686868686604051808673ffffffffffffffffffffffffffffffffffffffff1673ffffffffffffffffffffffffffffffffffffffff168152602001806020018481526020018360ff1660ff1681526020018281038252868682818152602001925080828437600081840152601f19601f820116905080830192505050965050505050505060405180910390a1505050505050565b6000600660008373ffffffffffffffffffffffffffffffffffffffff1673ffffffffffffffffffffffffffffffffffffffff16815260200190815260200160002060010160009054906101000a900460ff169050919050565b6000838383604051602001808473ffffffffffffffffffffffffffffffffffffffff1673ffffffffffffffffffffffffffffffffffffffff1660601b815260140183805190602001908083835b602083106130435780518252602082019150602081019050602083039250613020565b6001836020036101000a03801982511681845116808217855250505050505090500182815260200193505050506040516020818303038152906040528051906020012090509392505050565b613097612c0a565b6130ec576040517f08c379a00000000000000000000000000000000000000000000000000000000081526004018080602001828103825260258152602001806136646025913960400191505060405180910390fd5b6001600560003373ffffffffffffffffffffffffffffffffffffffff1673ffffffffffffffffffffffffffffffffffffffff16815260200190815260200160002054146131a1576040517f08c379a00000000000000000000000000000000000000000000000000000000081526004018080602001828103825260188152602001807f43616c6c6572206973206e6f7420617574686f72697a6564000000000000000081525060200191505060405180910390fd5b60006131ae848484612fd3565b905060008090505b600a6000838152602001908152602001600020805490508110156133be576131dc613517565b600a600084815260200190815260200160002082815481106131fa57fe5b90600052602060002090600402016040518060800160405290816000820160009054906101000a900473ffffffffffffffffffffffffffffffffffffffff1673ffffffffffffffffffffffffffffffffffffffff1673ffffffffffffffffffffffffffffffffffffffff16815260200160018201548152602001600282015481526020016003820160009054906101000a900460ff1615151515815250509050600015158160600151151514156133b057600181606001901515908115158152505060006132ec60646132de846040015185602001516133c590919063ffffffff16565b6133f990919063ffffffff16565b905080600b6000846000015173ffffffffffffffffffffffffffffffffffffffff1673ffffffffffffffffffffffffffffffffffffffff168152602001908152602001600020600082825401925050819055507f868591bb2b953c2ab9230c3d982fc24b5b255e5d8d9bcd0c1a5e6ad5cddccab6826000015182604051808373ffffffffffffffffffffffffffffffffffffffff1673ffffffffffffffffffffffffffffffffffffffff1681526020018281526020019250505060405180910390a1505b5080806001019150506131b6565b5050505050565b6000808314156133d857600090506133f3565b8183029050818382816133e757fe5b04146133ef57fe5b8090505b92915050565b600081838161340457fe5b04905092915050565b828054600181600116156101000203166002900490600052602060002090601f016020900481019282601f1061344e57805160ff191683800117855561347c565b8280016001018555821561347c579182015b8281111561347b578251825591602001919060010190613460565b5b5090506134899190613557565b5090565b828054828255906000526020600020908101928215613506579160200282015b828111156135055782518260006101000a81548173ffffffffffffffffffffffffffffffffffffffff021916908373ffffffffffffffffffffffffffffffffffffffff160217905550916020019190600101906134ad565b5b509050613513919061357c565b5090565b6040518060800160405280600073ffffffffffffffffffffffffffffffffffffffff16815260200160008152602001600081526020016000151581525090565b61357991905b8082111561357557600081600090555060010161355d565b5090565b90565b6135bc91905b808211156135b857600081816101000a81549073ffffffffffffffffffffffffffffffffffffffff021916905550600101613582565b5090565b9056fe466c696768742068617320616c7265616479206265656e207265676973746572656443616c6c65722068617320616c72656164792063616c6c656420746869732066756e6374696f6e2e4e6577206d6f6465206d75737420626520646966666572656e742066726f6d206578697374696e67206d6f64654f6e6c79206578697374696e6720616e642066756e646564206169726c696e65732061726520616c6c6f776564436f6e74726163742069732063757272656e746c79206e6f74206f7065726174696f6e616c4169726c696e652068617320616c7265616479206265656e2072656769737465726564a265627a7a723158202b19f951888b2cc215110fdc3b8128560be7d9888bf05751d1371e2fffde4a9364736f6c63430005110032",
  "source": "pragma solidity ^0.5.0;\n\nimport \"../node_modules/openzeppelin-solidity/contracts/math/SafeMath.sol\";\n\ncontract FlightSuretyData {\n    using SafeMath for uint256;\n\n    /********************************************************************************************/\n    /*                                       DATA VARIABLES                                     */\n    /********************************************************************************************/\n\n    // Account used to deploy contract\n    address private contractOwner;\n\n    // Flight status codes\n    uint8 private constant STATUS_CODE_UNKNOWN = 0;\n    uint8 private constant STATUS_CODE_ON_TIME = 10;\n    uint8 private constant STATUS_CODE_LATE_AIRLINE = 20;\n    uint8 private constant STATUS_CODE_LATE_WEATHER = 30;\n    uint8 private constant STATUS_CODE_LATE_TECHNICAL = 40;\n    uint8 private constant STATUS_CODE_LATE_OTHER = 50;\n\n    // Rate limit and entrancy guard\n    uint256 private enabled = block.timestamp;\n    uint256 private counter = 1;\n\n    // Blocks all state changes throughout the contract if false\n    bool private operational = true;\n\n    // Multi-party consensus\n    // Added to setOperational() to practice the concept\n    uint256 constant M = 1;\n    address[] multiCalls = new address[](0);\n\n    // Restrict data contract callers\n    mapping(address => uint256) private authorizedContracts;\n\n    // Airlines\n    struct Airline {\n        string name;\n        bool isFunded;\n        bool isRegistered;\n    }\n    mapping(address => Airline) private airlines;\n    address[] registeredAirlines = new address[](0);\n\n    // Flights\n    struct Flight {\n        bool isRegistered;\n        uint8 statusCode; // 0: unknown (in-flight), >0: landed\n        uint256 updatedTimestamp;\n        address airline;\n        string flight;\n        string from;\n        string to;\n    }\n    mapping(bytes32 => Flight) private flights;\n    bytes32[] registeredFlights = new bytes32[](0);\n\n    // Insurances\n    struct Insurance {\n        address passenger;\n        uint256 amount; // Passenger insurance payment\n        uint256 multiplier; // General damages multiplier (1.5x by default)\n        bool isCredited;\n    }\n    mapping(bytes32 => Insurance[]) insuredPassengersPerFlight;\n    mapping(address => uint256) public pendingPayments;\n\n    /********************************************************************************************/\n    /*                                       CONSTRUCTOR                                        */\n    /********************************************************************************************/\n\n    /**\n     * @dev Constructor\n     *      The deploying account becomes contractOwner\n     */\n    constructor(string memory firstAirlineName, address firstAirlineAddress)\n        public\n    {\n        contractOwner = msg.sender;\n\n        // Airline Contract Initialization: First airline is registered when contract is deployed\n        airlines[firstAirlineAddress] = Airline({\n            name: firstAirlineName,\n            isFunded: false,\n            isRegistered: true\n        });\n\n        registeredAirlines.push(firstAirlineAddress);\n    }\n\n    /********************************************************************************************/\n    /*                                       FUNCTION MODIFIERS                                 */\n    /********************************************************************************************/\n\n    // Modifiers help avoid duplication of code. They are typically used to validate something\n    // before a function is allowed to be executed.\n\n    /**\n     * @dev Modifier that requires the \"operational\" boolean variable to be \"true\"\n     *      This is used on all state changing functions to pause the contract in\n     *      the event there is an issue that needs to be fixed\n     */\n    modifier requireIsOperational() {\n        require(isOperational(), \"Contract is currently not operational\");\n        _; // All modifiers require an \"_\" which indicates where the function body will be added\n    }\n\n    /**\n     * @dev Modifier that requires the \"ContractOwner\" account to be the function caller\n     */\n    modifier requireContractOwner() {\n        require(msg.sender == contractOwner, \"Caller is not contract owner\");\n        _;\n    }\n\n    /**\n     * @dev Modifier that requires function caller to be authorized\n     */\n    modifier requireIsCallerAuthorized() {\n        require(\n            authorizedContracts[msg.sender] == 1,\n            \"Caller is not authorized\"\n        );\n        _;\n    }\n\n    /**\n     * @dev Modifier that requires airline to be funded\n     */\n    modifier requireAirlineIsFunded(address airline) {\n        require(\n            this.isFundedAirline(airline),\n            \"Only existing and funded airlines are allowed\"\n        );\n        _;\n    }\n\n    /**\n     * @dev Modifier that requires address to be valid\n     */\n    modifier requireValidAddress(address addr) {\n        require(addr != address(0), \"Invalid address\");\n        _;\n    }\n\n    /**\n     * @dev Limit rate of withdrawals\n     */\n    modifier rateLimit(uint256 time) {\n        require(block.timestamp >= enabled, \"Rate limiting in effect\");\n        enabled = enabled.add(time);\n        _;\n    }\n\n    /**\n     * @dev Prevent re-entrancy bugs for withdrawals\n     */\n    modifier entrancyGuard() {\n        counter = counter.add(1);\n        uint256 guard = counter;\n        _;\n        require(guard == counter, \"That is not allowd\");\n    }\n\n    /********************************************************************************************/\n    /*                                       EVENT DEFINITIONS                                  */\n    /********************************************************************************************/\n\n    event AirlineRegistered(string name, address addr);\n    event AirlineFunded(string name, address addr);\n    event FlightRegistered(\n        bytes32 flightKey,\n        address airline,\n        string flight,\n        string from,\n        string to,\n        uint256 timestamp\n    );\n    event InsuranceBought(\n        address airline,\n        string flight,\n        uint256 timestamp,\n        address passenger,\n        uint256 amount,\n        uint256 multiplier\n    );\n    event FlightStatusUpdated(\n        address airline,\n        string flight,\n        uint256 timestamp,\n        uint8 statusCode\n    );\n    event InsureeCredited(address passenger, uint256 amount);\n    event AccountWithdrawn(address passenger, uint256 amount);\n\n    /********************************************************************************************/\n    /*                                       UTILITY FUNCTIONS                                  */\n    /********************************************************************************************/\n\n    /**\n     * @dev Get operating status of contract\n     *\n     * @return A bool that is the current operating status\n     */\n\n    function isOperational() public view returns (bool) {\n        return operational;\n    }\n\n    /**\n     * @dev Get airline details\n     *\n     * @return Airline with the provided address\n     */\n    function getAirlineName(address airline)\n        external\n        view\n        returns (string memory)\n    {\n        return airlines[airline].name;\n    }\n\n    /**\n     * @dev Check if the address is a registered airline\n     *\n     * @return A bool confirming whether or not the address is a registered airline\n     */\n    function isAirline(address airline) external view returns (bool) {\n        return airlines[airline].isRegistered;\n    }\n\n    /**\n     * @dev Check if the address is a funded airline\n     *\n     * @return A bool confirming whether or not the address is a funded airline\n     */\n    function isFundedAirline(address airline) external view returns (bool) {\n        return airlines[airline].isFunded;\n    }\n\n    /**\n     * @dev Get registered airlines\n     *\n     * @return An array with the addresses of all registered airlines\n     */\n    function getRegisteredAirlines() external view returns (address[] memory) {\n        return registeredAirlines;\n    }\n\n    /**\n     * @dev Check if the flight is registered\n     */\n    function getFlightStatusCode(\n        address airline,\n        string calldata flight,\n        uint256 timestamp\n    ) external view returns (uint8) {\n        return flights[getFlightKey(airline, flight, timestamp)].statusCode;\n    }\n\n    /**\n     * @dev Check if the flight is registered\n     */\n    function isFlight(\n        address airline,\n        string calldata flight,\n        uint256 timestamp\n    ) external view returns (bool) {\n        return flights[getFlightKey(airline, flight, timestamp)].isRegistered;\n    }\n\n    /**\n     * @dev Check if the flight status code is \"landed\"\n     */\n    function isLandedFlight(\n        address airline,\n        string calldata flight,\n        uint256 timestamp\n    ) external view returns (bool) {\n        return\n            flights[getFlightKey(airline, flight, timestamp)].statusCode >\n            STATUS_CODE_UNKNOWN;\n    }\n\n    /**\n     * @dev Check if the passenger is registerd for the flight\n     */\n    function isInsured(\n        address passenger,\n        address airline,\n        string calldata flight,\n        uint256 timestamp\n    ) external view returns (bool) {\n\n            Insurance[] memory insuredPassengers\n         = insuredPassengersPerFlight[getFlightKey(airline, flight, timestamp)];\n        for (uint256 i = 0; i < insuredPassengers.length; i++) {\n            if (insuredPassengers[i].passenger == passenger) {\n                return true;\n            }\n        }\n        return false;\n    }\n\n    /**\n     * @dev Return the pending payment\n     */\n    function getPendingPaymentAmount(address passenger)\n        external\n        view\n        returns (uint256)\n    {\n        return pendingPayments[passenger];\n    }\n\n    /**\n     * @dev Sets contract operations on/off\n     *\n     * When operational mode is disabled, all write transactions except for this one will fail\n     */\n\n    function setOperatingStatus(bool mode) external requireContractOwner {\n        require(\n            mode != operational,\n            \"New mode must be different from existing mode\"\n        );\n\n        bool isDuplicate = false;\n\n        for (uint256 i = 0; i < multiCalls.length; i++) {\n            if (multiCalls[i] == msg.sender) {\n                isDuplicate = true;\n                break;\n            }\n        }\n\n        require(!isDuplicate, \"Caller has already called this function.\");\n\n        multiCalls.push(msg.sender);\n\n        if (multiCalls.length >= M) {\n            operational = mode;\n            multiCalls = new address[](0);\n        }\n    }\n\n    /**\n     * @dev Adds address to authorized contracts\n     */\n    function authorizeCaller(address contractAddress)\n        external\n        requireContractOwner\n    {\n        authorizedContracts[contractAddress] = 1;\n    }\n\n    /**\n     * @dev Removes address from authorized contracts\n     */\n    function deauthorizeCaller(address contractAddress)\n        external\n        requireContractOwner\n    {\n        delete authorizedContracts[contractAddress];\n    }\n\n    /********************************************************************************************/\n    /*                                     SMART CONTRACT FUNCTIONS                             */\n    /********************************************************************************************/\n\n    /**\n     * @dev Add an airline to the registration queue\n     *      Can only be called from FlightSuretyApp contract\n     */\n    function registerAirline(string calldata name, address addr)\n        external\n        requireIsOperational\n        requireIsCallerAuthorized\n        requireValidAddress(addr)\n        returns (bool success)\n    {\n        require(\n            !airlines[addr].isRegistered,\n            \"Airline has already been registered\"\n        );\n\n        bool result = true;\n\n        airlines[addr] = Airline({\n            name: name,\n            isFunded: false,\n            isRegistered: true\n        });\n\n        registeredAirlines.push(addr);\n\n        emit AirlineRegistered(name, addr);\n\n        return result;\n    }\n\n    /**\n     * @dev Submit funding for airline\n     */\n\n    function fundAirline(address addr)\n        external\n        requireIsOperational\n        requireIsCallerAuthorized\n    {\n        airlines[addr].isFunded = true;\n        emit AirlineFunded(airlines[addr].name, addr);\n    }\n\n    /**\n     * @dev Register a flight\n     */\n    function registerFlight(\n        address airline,\n        string calldata flight,\n        string calldata from,\n        string calldata to,\n        uint256 timestamp\n    )\n        external\n        requireIsOperational\n        requireIsCallerAuthorized\n        requireValidAddress(airline)\n        requireAirlineIsFunded(airline)\n    {\n        bytes32 flightKey = getFlightKey(airline, flight, timestamp);\n        require(\n            !flights[flightKey].isRegistered,\n            \"Flight has already been registered\"\n        );\n\n        flights[flightKey] = Flight({\n            isRegistered: true,\n            statusCode: 0,\n            updatedTimestamp: timestamp,\n            airline: airline,\n            flight: flight,\n            from: from,\n            to: to\n        });\n\n        registeredFlights.push(flightKey);\n\n        emit FlightRegistered(flightKey, airline, flight, from, to, timestamp);\n    }\n\n    /**\n     * @dev Process flights\n     */\n    function processFlightStatus(\n        address airline,\n        string calldata flight,\n        uint256 timestamp,\n        uint8 statusCode\n    ) external requireIsOperational requireIsCallerAuthorized {\n        //require(!this.isLandedFlight(airline, flight, timestamp), \"Flight already landed\");\n\n        bytes32 flightKey = getFlightKey(airline, flight, timestamp);\n\n        if (flights[flightKey].statusCode == STATUS_CODE_UNKNOWN) {\n            flights[flightKey].statusCode = statusCode;\n            if (statusCode == STATUS_CODE_LATE_AIRLINE) {\n                creditInsurees(airline, flight, timestamp);\n            }\n        }\n\n        emit FlightStatusUpdated(airline, flight, timestamp, statusCode);\n    }\n\n    /**\n     * @dev Buy insurance for a flight\n     */\n\n    function buy(\n        address airline,\n        string calldata flight,\n        uint256 timestamp,\n        address passenger,\n        uint256 amount,\n        uint256 multiplier\n    ) external requireIsOperational requireIsCallerAuthorized {\n        bytes32 flightKey = getFlightKey(airline, flight, timestamp);\n\n        insuredPassengersPerFlight[flightKey].push(\n            Insurance({\n                passenger: passenger,\n                amount: amount,\n                multiplier: multiplier,\n                isCredited: false\n            })\n        );\n\n        emit InsuranceBought(\n            airline,\n            flight,\n            timestamp,\n            passenger,\n            amount,\n            multiplier\n        );\n    }\n\n    /**\n     * @dev Credits payouts to insurees\n     */\n    function creditInsurees(\n        address airline,\n        string memory flight,\n        uint256 timestamp\n    ) internal requireIsOperational requireIsCallerAuthorized {\n        bytes32 flightKey = getFlightKey(airline, flight, timestamp);\n\n        for (\n            uint256 i = 0;\n            i < insuredPassengersPerFlight[flightKey].length;\n            i++\n        ) {\n\n                Insurance memory insurance\n             = insuredPassengersPerFlight[flightKey][i];\n\n            if (insurance.isCredited == false) {\n                insurance.isCredited = true;\n                uint256 amount = insurance.amount.mul(insurance.multiplier).div(\n                    100\n                );\n                pendingPayments[insurance.passenger] += amount;\n\n                emit InsureeCredited(insurance.passenger, amount);\n            }\n        }\n    }\n\n    /**\n     * @dev Transfers eligible payout funds to insuree\n     */\n    function pay(address passenger)\n        external\n        requireIsOperational\n        requireIsCallerAuthorized\n    {\n        // Checks\n        require(passenger == tx.origin, \"Contracts not allowed\");\n        require(\n            pendingPayments[passenger] > 0,\n            \"No fund available for withdrawal\"\n        );\n\n        // Effects\n        uint256 amount = pendingPayments[passenger];\n        pendingPayments[passenger] = 0;\n\n        // Interaction\n        // Cast address to payable address\n        address(uint160(passenger)).transfer(amount);\n\n        emit AccountWithdrawn(passenger, amount);\n    }\n\n    /**\n     * @dev Initial funding for the insurance. Unless there are too many delayed flights\n     *      resulting in insurance payouts, the contract should be self-sustaining\n     */\n\n    function fund() public payable requireIsOperational {}\n\n    function getFlightKey(\n        address airline,\n        string memory flight,\n        uint256 timestamp\n    ) internal pure returns (bytes32) {\n        return keccak256(abi.encodePacked(airline, flight, timestamp));\n    }\n\n    /**\n     * @dev Fallback function for funding smart contract.\n     */\n    function() external payable {\n        fund();\n    }\n}\n",
  "sourcePath": "/Users/sohardhchobera/Downloads/flightsurety-master/contracts/FlightSuretyData.sol",
  "compiler": {
    "name": "solc",
    "version": "0.5.17+commit.d19bba13.Emscripten.clang"
  },
  "schemaVersion": "3.2.2",
  "updatedAt": "2020-07-18T05:30:41.195Z",
  "devdoc": {
    "methods": {
      "authorizeCaller(address)": {
        "details": "Adds address to authorized contracts"
      },
      "buy(address,string,uint256,address,uint256,uint256)": {
        "details": "Buy insurance for a flight"
      },
      "constructor": {
        "details": "Constructor     The deploying account becomes contractOwner"
      },
      "deauthorizeCaller(address)": {
        "details": "Removes address from authorized contracts"
      },
      "fund()": {
        "details": "Initial funding for the insurance. Unless there are too many delayed flights     resulting in insurance payouts, the contract should be self-sustaining"
      },
      "fundAirline(address)": {
        "details": "Submit funding for airline"
      },
      "getAirlineName(address)": {
        "details": "Get airline details",
        "return": "Airline with the provided address"
      },
      "getFlightStatusCode(address,string,uint256)": {
        "details": "Check if the flight is registered"
      },
      "getPendingPaymentAmount(address)": {
        "details": "Return the pending payment"
      },
      "getRegisteredAirlines()": {
        "details": "Get registered airlines",
        "return": "An array with the addresses of all registered airlines"
      },
      "isAirline(address)": {
        "details": "Check if the address is a registered airline",
        "return": "A bool confirming whether or not the address is a registered airline"
      },
      "isFlight(address,string,uint256)": {
        "details": "Check if the flight is registered"
      },
      "isFundedAirline(address)": {
        "details": "Check if the address is a funded airline",
        "return": "A bool confirming whether or not the address is a funded airline"
      },
      "isInsured(address,address,string,uint256)": {
        "details": "Check if the passenger is registerd for the flight"
      },
      "isLandedFlight(address,string,uint256)": {
        "details": "Check if the flight status code is \"landed\""
      },
      "isOperational()": {
        "details": "Get operating status of contract",
        "return": "A bool that is the current operating status"
      },
      "pay(address)": {
        "details": "Transfers eligible payout funds to insuree"
      },
      "processFlightStatus(address,string,uint256,uint8)": {
        "details": "Process flights"
      },
      "registerAirline(string,address)": {
        "details": "Add an airline to the registration queue     Can only be called from FlightSuretyApp contract"
      },
      "registerFlight(address,string,string,string,uint256)": {
        "details": "Register a flight"
      },
      "setOperatingStatus(bool)": {
        "details": "Sets contract operations on/off     * When operational mode is disabled, all write transactions except for this one will fail"
      }
    }
  },
  "userdoc": {
    "methods": {}
  }
}