{
  "contractName": "FlightSuretyApp",
  "abi": [
    {
      "inputs": [
        {
          "internalType": "address",
          "name": "dataContract",
          "type": "address"
        }
      ],
      "payable": false,
      "stateMutability": "nonpayable",
      "type": "constructor"
    },
    {
      "anonymous": false,
      "inputs": [
        {
          "indexed": false,
          "internalType": "address",
          "name": "addr",
          "type": "address"
        },
        {
          "indexed": false,
          "internalType": "uint256",
          "name": "amount",
          "type": "uint256"
        }
      ],
      "name": "AirlineFunded",
      "type": "event"
    },
    {
      "anonymous": false,
      "inputs": [
        {
          "indexed": false,
          "internalType": "string",
          "name": "name",
          "type": "string"
        },
        {
          "indexed": false,
          "internalType": "address",
          "name": "addr",
          "type": "address"
        },
        {
          "indexed": false,
          "internalType": "bool",
          "name": "success",
          "type": "bool"
        },
        {
          "indexed": false,
          "internalType": "uint256",
          "name": "votes",
          "type": "uint256"
        }
      ],
      "name": "AirlineRegistered",
      "type": "event"
    },
    {
      "anonymous": false,
      "inputs": [
        {
          "indexed": false,
          "internalType": "address",
          "name": "airline",
          "type": "address"
        },
        {
          "indexed": false,
          "internalType": "string",
          "name": "flight",
          "type": "string"
        },
        {
          "indexed": false,
          "internalType": "string",
          "name": "from",
          "type": "string"
        },
        {
          "indexed": false,
          "internalType": "string",
          "name": "to",
          "type": "string"
        },
        {
          "indexed": false,
          "internalType": "uint256",
          "name": "timestamp",
          "type": "uint256"
        }
      ],
      "name": "FlightRegistered",
      "type": "event"
    },
    {
      "anonymous": false,
      "inputs": [
        {
          "indexed": false,
          "internalType": "address",
          "name": "airline",
          "type": "address"
        },
        {
          "indexed": false,
          "internalType": "string",
          "name": "flight",
          "type": "string"
        },
        {
          "indexed": false,
          "internalType": "uint256",
          "name": "timestamp",
          "type": "uint256"
        },
        {
          "indexed": false,
          "internalType": "uint8",
          "name": "status",
          "type": "uint8"
        }
      ],
      "name": "FlightStatusInfo",
      "type": "event"
    },
    {
      "anonymous": false,
      "inputs": [
        {
          "indexed": false,
          "internalType": "address",
          "name": "airline",
          "type": "address"
        },
        {
          "indexed": false,
          "internalType": "string",
          "name": "flight",
          "type": "string"
        },
        {
          "indexed": false,
          "internalType": "uint256",
          "name": "timestamp",
          "type": "uint256"
        },
        {
          "indexed": false,
          "internalType": "address",
          "name": "passenger",
          "type": "address"
        },
        {
          "indexed": false,
          "internalType": "uint256",
          "name": "amount",
          "type": "uint256"
        },
        {
          "indexed": false,
          "internalType": "uint256",
          "name": "multiplier",
          "type": "uint256"
        }
      ],
      "name": "InsuranceBought",
      "type": "event"
    },
    {
      "anonymous": false,
      "inputs": [
        {
          "indexed": false,
          "internalType": "address",
          "name": "airline",
          "type": "address"
        },
        {
          "indexed": false,
          "internalType": "string",
          "name": "flight",
          "type": "string"
        },
        {
          "indexed": false,
          "internalType": "uint256",
          "name": "timestamp",
          "type": "uint256"
        },
        {
          "indexed": false,
          "internalType": "uint8",
          "name": "status",
          "type": "uint8"
        }
      ],
      "name": "OracleReport",
      "type": "event"
    },
    {
      "anonymous": false,
      "inputs": [
        {
          "indexed": false,
          "internalType": "uint8",
          "name": "index",
          "type": "uint8"
        },
        {
          "indexed": false,
          "internalType": "address",
          "name": "airline",
          "type": "address"
        },
        {
          "indexed": false,
          "internalType": "string",
          "name": "flight",
          "type": "string"
        },
        {
          "indexed": false,
          "internalType": "uint256",
          "name": "timestamp",
          "type": "uint256"
        }
      ],
      "name": "OracleRequest",
      "type": "event"
    },
    {
      "constant": true,
      "inputs": [],
      "name": "REGISTRATION_FEE",
      "outputs": [
        {
          "internalType": "uint256",
          "name": "",
          "type": "uint256"
        }
      ],
      "payable": false,
      "stateMutability": "view",
      "type": "function"
    },
    {
      "constant": true,
      "inputs": [],
      "name": "isOperational",
      "outputs": [
        {
          "internalType": "bool",
          "name": "",
          "type": "bool"
        }
      ],
      "payable": false,
      "stateMutability": "view",
      "type": "function"
    },
    {
      "constant": false,
      "inputs": [
        {
          "internalType": "string",
          "name": "name",
          "type": "string"
        },
        {
          "internalType": "address",
          "name": "addr",
          "type": "address"
        }
      ],
      "name": "registerAirline",
      "outputs": [
        {
          "internalType": "bool",
          "name": "success",
          "type": "bool"
        },
        {
          "internalType": "uint256",
          "name": "votes",
          "type": "uint256"
        }
      ],
      "payable": false,
      "stateMutability": "nonpayable",
      "type": "function"
    },
    {
      "constant": false,
      "inputs": [],
      "name": "fundAirline",
      "outputs": [],
      "payable": true,
      "stateMutability": "payable",
      "type": "function"
    },
    {
      "constant": false,
      "inputs": [
        {
          "internalType": "string",
          "name": "flight",
          "type": "string"
        },
        {
          "internalType": "string",
          "name": "from",
          "type": "string"
        },
        {
          "internalType": "string",
          "name": "to",
          "type": "string"
        },
        {
          "internalType": "uint256",
          "name": "timestamp",
          "type": "uint256"
        }
      ],
      "name": "registerFlight",
      "outputs": [],
      "payable": false,
      "stateMutability": "nonpayable",
      "type": "function"
    },
    {
      "constant": false,
      "inputs": [
        {
          "internalType": "address",
          "name": "airline",
          "type": "address"
        },
        {
          "internalType": "string",
          "name": "flight",
          "type": "string"
        },
        {
          "internalType": "uint256",
          "name": "timestamp",
          "type": "uint256"
        }
      ],
      "name": "buyInsurance",
      "outputs": [],
      "payable": true,
      "stateMutability": "payable",
      "type": "function"
    },
    {
      "constant": false,
      "inputs": [
        {
          "internalType": "address",
          "name": "airline",
          "type": "address"
        },
        {
          "internalType": "string",
          "name": "flight",
          "type": "string"
        },
        {
          "internalType": "uint256",
          "name": "timestamp",
          "type": "uint256"
        }
      ],
      "name": "fetchFlightStatus",
      "outputs": [],
      "payable": false,
      "stateMutability": "nonpayable",
      "type": "function"
    },
    {
      "constant": false,
      "inputs": [],
      "name": "pay",
      "outputs": [],
      "payable": false,
      "stateMutability": "nonpayable",
      "type": "function"
    },
    {
      "constant": false,
      "inputs": [],
      "name": "registerOracle",
      "outputs": [],
      "payable": true,
      "stateMutability": "payable",
      "type": "function"
    },
    {
      "constant": true,
      "inputs": [],
      "name": "getMyIndexes",
      "outputs": [
        {
          "internalType": "uint8[3]",
          "name": "",
          "type": "uint8[3]"
        }
      ],
      "payable": false,
      "stateMutability": "view",
      "type": "function"
    },
    {
      "constant": false,
      "inputs": [
        {
          "internalType": "uint8",
          "name": "index",
          "type": "uint8"
        },
        {
          "internalType": "address",
          "name": "airline",
          "type": "address"
        },
        {
          "internalType": "string",
          "name": "flight",
          "type": "string"
        },
        {
          "internalType": "uint256",
          "name": "timestamp",
          "type": "uint256"
        },
        {
          "internalType": "uint8",
          "name": "statusCode",
          "type": "uint8"
        }
      ],
      "name": "submitOracleResponse",
      "outputs": [],
      "payable": false,
      "stateMutability": "nonpayable",
      "type": "function"
    }
  ],
  "bytecode": "0x60806040526000600360006101000a81548160ff021916908360ff16021790555034801561002c57600080fd5b50604051613af0380380613af08339818101604052602081101561004f57600080fd5b810190808051906020019092919050505033600160006101000a81548173ffffffffffffffffffffffffffffffffffffffff021916908373ffffffffffffffffffffffffffffffffffffffff160217905550806000806101000a81548173ffffffffffffffffffffffffffffffffffffffff021916908373ffffffffffffffffffffffffffffffffffffffff160217905550506139ff806100f16000396000f3fe60806040526004361061009c5760003560e01c806364b4f7511161006457806364b4f751146102bf5780638855d7a7146102ea5780639ed1892714610424578063c10f27001461042e578063cd905dff146104f8578063f83f11c0146105275761009c565b80630e2c4129146100a15780631b9265b8146101a85780632f6721d0146101bf578063339d2590146102625780635f1cc0e61461026c575b600080fd5b3480156100ad57600080fd5b50610187600480360360408110156100c457600080fd5b81019080803590602001906401000000008111156100e157600080fd5b8201836020820111156100f357600080fd5b8035906020019184600183028401116401000000008311171561011557600080fd5b91908080601f016020809104026020016040519081016040528093929190818152602001838380828437600081840152601f19601f820116905080830192505050505050509192919290803573ffffffffffffffffffffffffffffffffffffffff1690602001909291905050506105d7565b60405180831515151581526020018281526020019250505060405180910390f35b3480156101b457600080fd5b506101bd611251565b005b610260600480360360608110156101d557600080fd5b81019080803573ffffffffffffffffffffffffffffffffffffffff1690602001909291908035906020019064010000000081111561021257600080fd5b82018360208201111561022457600080fd5b8035906020019184600183028401116401000000008311171561024657600080fd5b909192939192939080359060200190929190505050611402565b005b61026a611c9f565b005b34801561027857600080fd5b50610281611ebc565b6040518082600360200280838360005b838110156102ac578082015181840152602081019050610291565b5050505090500191505060405180910390f35b3480156102cb57600080fd5b506102d4612126565b6040518082815260200191505060405180910390f35b3480156102f657600080fd5b506104226004803603608081101561030d57600080fd5b810190808035906020019064010000000081111561032a57600080fd5b82018360208201111561033c57600080fd5b8035906020019184600183028401116401000000008311171561035e57600080fd5b90919293919293908035906020019064010000000081111561037f57600080fd5b82018360208201111561039157600080fd5b803590602001918460018302840111640100000000831117156103b357600080fd5b9091929391929390803590602001906401000000008111156103d457600080fd5b8201836020820111156103e657600080fd5b8035906020019184600183028401116401000000008311171561040857600080fd5b909192939192939080359060200190929190505050612132565b005b61042c61266a565b005b34801561043a57600080fd5b506104f6600480360360a081101561045157600080fd5b81019080803560ff169060200190929190803573ffffffffffffffffffffffffffffffffffffffff1690602001909291908035906020019064010000000081111561049b57600080fd5b8201836020820111156104ad57600080fd5b803590602001918460018302840111640100000000831117156104cf57600080fd5b909192939192939080359060200190929190803560ff16906020019092919050505061294e565b005b34801561050457600080fd5b5061050d612f66565b604051808215151515815260200191505060405180910390f35b34801561053357600080fd5b506105d56004803603606081101561054a57600080fd5b81019080803573ffffffffffffffffffffffffffffffffffffffff1690602001909291908035906020019064010000000081111561058757600080fd5b82018360208201111561059957600080fd5b803590602001918460018302840111640100000000831117156105bb57600080fd5b90919293919293908035906020019092919050505061300f565b005b6000806000809054906101000a900473ffffffffffffffffffffffffffffffffffffffff1673ffffffffffffffffffffffffffffffffffffffff1663cd905dff6040518163ffffffff1660e01b815260040160206040518083038186803b15801561064157600080fd5b505afa158015610655573d6000803e3d6000fd5b505050506040513d602081101561066b57600080fd5b81019080805190602001909291905050506106d1576040517f08c379a00000000000000000000000000000000000000000000000000000000081526004018080602001828103825260258152602001806139836025913960400191505060405180910390fd5b82600073ffffffffffffffffffffffffffffffffffffffff168173ffffffffffffffffffffffffffffffffffffffff161415610775576040517f08c379a000000000000000000000000000000000000000000000000000000000815260040180806020018281038252600f8152602001807f496e76616c69642061646472657373000000000000000000000000000000000081525060200191505060405180910390fd5b336000809054906101000a900473ffffffffffffffffffffffffffffffffffffffff1673ffffffffffffffffffffffffffffffffffffffff1663f3ba4e1b826040518263ffffffff1660e01b8152600401808273ffffffffffffffffffffffffffffffffffffffff1673ffffffffffffffffffffffffffffffffffffffff16815260200191505060206040518083038186803b15801561081457600080fd5b505afa158015610828573d6000803e3d6000fd5b505050506040513d602081101561083e57600080fd5b81019080805190602001909291905050506108a4576040517f08c379a000000000000000000000000000000000000000000000000000000000815260040180806020018281038252602d815260200180613956602d913960400191505060405180910390fd5b600080905060606000809054906101000a900473ffffffffffffffffffffffffffffffffffffffff1673ffffffffffffffffffffffffffffffffffffffff1663c23bcf096040518163ffffffff1660e01b815260040160006040518083038186803b15801561091257600080fd5b505afa158015610926573d6000803e3d6000fd5b505050506040513d6000823e3d601f19601f82011682018060405250602081101561095057600080fd5b810190808051604051939291908464010000000082111561097057600080fd5b8382019150602082018581111561098657600080fd5b82518660208202830111640100000000821117156109a357600080fd5b8083526020830192505050908051906020019060200280838360005b838110156109da5780820151818401526020810190506109bf565b505050509050016040525050509050600081511415610b42576000809054906101000a900473ffffffffffffffffffffffffffffffffffffffff1673ffffffffffffffffffffffffffffffffffffffff16630e2c412989896040518363ffffffff1660e01b815260040180806020018373ffffffffffffffffffffffffffffffffffffffff1673ffffffffffffffffffffffffffffffffffffffff168152602001828103825284818151815260200191508051906020019080838360005b83811015610ab3578082015181840152602081019050610a98565b50505050905090810190601f168015610ae05780820380516001836020036101000a031916815260200191505b509350505050602060405180830381600087803b158015610b0057600080fd5b505af1158015610b14573d6000803e3d6000fd5b505050506040513d6020811015610b2a57600080fd5b810190808051906020019092919050505091506110d8565b600481511015610c9b576000809054906101000a900473ffffffffffffffffffffffffffffffffffffffff1673ffffffffffffffffffffffffffffffffffffffff16630e2c412989896040518363ffffffff1660e01b815260040180806020018373ffffffffffffffffffffffffffffffffffffffff1673ffffffffffffffffffffffffffffffffffffffff168152602001828103825284818151815260200191508051906020019080838360005b83811015610c0c578082015181840152602081019050610bf1565b50505050905090810190601f168015610c395780820380516001836020036101000a031916815260200191505b509350505050602060405180830381600087803b158015610c5957600080fd5b505af1158015610c6d573d6000803e3d6000fd5b505050506040513d6020811015610c8357600080fd5b810190808051906020019092919050505091506110d7565b600080905060008090505b600260008a73ffffffffffffffffffffffffffffffffffffffff1673ffffffffffffffffffffffffffffffffffffffff16815260200190815260200160002080549050811015610dae573373ffffffffffffffffffffffffffffffffffffffff16600260008b73ffffffffffffffffffffffffffffffffffffffff1673ffffffffffffffffffffffffffffffffffffffff1681526020019081526020016000208281548110610d5157fe5b9060005260206000200160009054906101000a900473ffffffffffffffffffffffffffffffffffffffff1673ffffffffffffffffffffffffffffffffffffffff161415610da15760019150610dae565b8080600101915050610ca6565b508015610e06576040517f08c379a00000000000000000000000000000000000000000000000000000000081526004018080602001828103825260288152602001806138b16028913960400191505060405180910390fd5b600260008973ffffffffffffffffffffffffffffffffffffffff1673ffffffffffffffffffffffffffffffffffffffff1681526020019081526020016000203390806001815401808255809150509060018203906000526020600020016000909192909190916101000a81548173ffffffffffffffffffffffffffffffffffffffff021916908373ffffffffffffffffffffffffffffffffffffffff16021790555050610ebe6002835161320090919063ffffffff16565b600260008a73ffffffffffffffffffffffffffffffffffffffff1673ffffffffffffffffffffffffffffffffffffffff16815260200190815260200160002080549050106110d5576000809054906101000a900473ffffffffffffffffffffffffffffffffffffffff1673ffffffffffffffffffffffffffffffffffffffff16630e2c41298a8a6040518363ffffffff1660e01b815260040180806020018373ffffffffffffffffffffffffffffffffffffffff1673ffffffffffffffffffffffffffffffffffffffff168152602001828103825284818151815260200191508051906020019080838360005b83811015610fc6578082015181840152602081019050610fab565b50505050905090810190601f168015610ff35780820380516001836020036101000a031916815260200191505b509350505050602060405180830381600087803b15801561101357600080fd5b505af1158015611027573d6000803e3d6000fd5b505050506040513d602081101561103d57600080fd5b8101908080519060200190929190505050925060006040519080825280602002602001820160405280156110805781602001602082028038833980820191505090505b50600260008a73ffffffffffffffffffffffffffffffffffffffff1673ffffffffffffffffffffffffffffffffffffffff16815260200190815260200160002090805190602001906110d39291906136c8565b505b505b5b7f5830152b09b4f01c34ead661365969a1f6683c57b8d4039a6ec2f3ca64c4274c888884600260008c73ffffffffffffffffffffffffffffffffffffffff1673ffffffffffffffffffffffffffffffffffffffff1681526020019081526020016000208054905060405180806020018573ffffffffffffffffffffffffffffffffffffffff1673ffffffffffffffffffffffffffffffffffffffff16815260200184151515158152602001838152602001828103825286818151815260200191508051906020019080838360005b838110156111c15780820151818401526020810190506111a6565b50505050905090810190601f1680156111ee5780820380516001836020036101000a031916815260200191505b509550505050505060405180910390a181600260008973ffffffffffffffffffffffffffffffffffffffff1673ffffffffffffffffffffffffffffffffffffffff1681526020019081526020016000208054905095509550505050509250929050565b6000809054906101000a900473ffffffffffffffffffffffffffffffffffffffff1673ffffffffffffffffffffffffffffffffffffffff1663cd905dff6040518163ffffffff1660e01b815260040160206040518083038186803b1580156112b857600080fd5b505afa1580156112cc573d6000803e3d6000fd5b505050506040513d60208110156112e257600080fd5b8101908080519060200190929190505050611348576040517f08c379a00000000000000000000000000000000000000000000000000000000081526004018080602001828103825260258152602001806139836025913960400191505060405180910390fd5b6000809054906101000a900473ffffffffffffffffffffffffffffffffffffffff1673ffffffffffffffffffffffffffffffffffffffff16630c11dedd336040518263ffffffff1660e01b8152600401808273ffffffffffffffffffffffffffffffffffffffff1673ffffffffffffffffffffffffffffffffffffffff168152602001915050600060405180830381600087803b1580156113e857600080fd5b505af11580156113fc573d6000803e3d6000fd5b50505050565b6000809054906101000a900473ffffffffffffffffffffffffffffffffffffffff1673ffffffffffffffffffffffffffffffffffffffff1663cd905dff6040518163ffffffff1660e01b815260040160206040518083038186803b15801561146957600080fd5b505afa15801561147d573d6000803e3d6000fd5b505050506040513d602081101561149357600080fd5b81019080805190602001909291905050506114f9576040517f08c379a00000000000000000000000000000000000000000000000000000000081526004018080602001828103825260258152602001806139836025913960400191505060405180910390fd5b6000341180156115115750670de0b6b3a76400003411155b611566576040517f08c379a00000000000000000000000000000000000000000000000000000000081526004018080602001828103825260288152602001806138d96028913960400191505060405180910390fd5b6000809054906101000a900473ffffffffffffffffffffffffffffffffffffffff1673ffffffffffffffffffffffffffffffffffffffff1663e6143d95858585856040518563ffffffff1660e01b8152600401808573ffffffffffffffffffffffffffffffffffffffff1673ffffffffffffffffffffffffffffffffffffffff168152602001806020018381526020018281038252858582818152602001925080828437600081840152601f19601f8201169050808301925050509550505050505060206040518083038186803b15801561164057600080fd5b505afa158015611654573d6000803e3d6000fd5b505050506040513d602081101561166a57600080fd5b81019080805190602001909291905050506116ed576040517f08c379a00000000000000000000000000000000000000000000000000000000081526004018080602001828103825260188152602001807f466c69676874206973206e6f742072656769737465726564000000000000000081525060200191505060405180910390fd5b6000809054906101000a900473ffffffffffffffffffffffffffffffffffffffff1673ffffffffffffffffffffffffffffffffffffffff1663015ea1a0858585856040518563ffffffff1660e01b8152600401808573ffffffffffffffffffffffffffffffffffffffff1673ffffffffffffffffffffffffffffffffffffffff168152602001806020018381526020018281038252858582818152602001925080828437600081840152601f19601f8201169050808301925050509550505050505060206040518083038186803b1580156117c757600080fd5b505afa1580156117db573d6000803e3d6000fd5b505050506040513d60208110156117f157600080fd5b810190808051906020019092919050505015611875576040517f08c379a00000000000000000000000000000000000000000000000000000000081526004018080602001828103825260158152602001807f466c6967687420616c7265616479206c616e646564000000000000000000000081525060200191505060405180910390fd5b6000809054906101000a900473ffffffffffffffffffffffffffffffffffffffff1673ffffffffffffffffffffffffffffffffffffffff1663c19b4fae33868686866040518663ffffffff1660e01b8152600401808673ffffffffffffffffffffffffffffffffffffffff1673ffffffffffffffffffffffffffffffffffffffff1681526020018573ffffffffffffffffffffffffffffffffffffffff1673ffffffffffffffffffffffffffffffffffffffff168152602001806020018381526020018281038252858582818152602001925080828437600081840152601f19601f820116905080830192505050965050505050505060206040518083038186803b15801561198357600080fd5b505afa158015611997573d6000803e3d6000fd5b505050506040513d60208110156119ad57600080fd5b810190808051906020019092919050505015611a14576040517f08c379a00000000000000000000000000000000000000000000000000000000081526004018080602001828103825260328152602001806139016032913960400191505060405180910390fd5b6000809054906101000a900473ffffffffffffffffffffffffffffffffffffffff1673ffffffffffffffffffffffffffffffffffffffff166108fc349081150290604051600060405180830381858888f19350505050158015611a7b573d6000803e3d6000fd5b506000809054906101000a900473ffffffffffffffffffffffffffffffffffffffff1673ffffffffffffffffffffffffffffffffffffffff1663a22a1af585858585333460966040518863ffffffff1660e01b8152600401808873ffffffffffffffffffffffffffffffffffffffff1673ffffffffffffffffffffffffffffffffffffffff168152602001806020018681526020018573ffffffffffffffffffffffffffffffffffffffff1673ffffffffffffffffffffffffffffffffffffffff1681526020018481526020018381526020018281038252888882818152602001925080828437600081840152601f19601f82011690508083019250505098505050505050505050600060405180830381600087803b158015611b9d57600080fd5b505af1158015611bb1573d6000803e3d6000fd5b505050507fc1647762ee49a904197616f0bd3213b3b925a37d94f32d699214e1b7608582108484848433346096604051808873ffffffffffffffffffffffffffffffffffffffff1673ffffffffffffffffffffffffffffffffffffffff168152602001806020018681526020018573ffffffffffffffffffffffffffffffffffffffff1673ffffffffffffffffffffffffffffffffffffffff1681526020018481526020018381526020018281038252888882818152602001925080828437600081840152601f19601f8201169050808301925050509850505050505050505060405180910390a150505050565b6000809054906101000a900473ffffffffffffffffffffffffffffffffffffffff1673ffffffffffffffffffffffffffffffffffffffff1663cd905dff6040518163ffffffff1660e01b815260040160206040518083038186803b158015611d0657600080fd5b505afa158015611d1a573d6000803e3d6000fd5b505050506040513d6020811015611d3057600080fd5b8101908080519060200190929190505050611d96576040517f08c379a00000000000000000000000000000000000000000000000000000000081526004018080602001828103825260258152602001806139836025913960400191505060405180910390fd5b670de0b6b3a7640000341015611e14576040517f08c379a000000000000000000000000000000000000000000000000000000000815260040180806020018281038252601c8152602001807f526567697374726174696f6e206665652069732072657175697265640000000081525060200191505060405180910390fd5b611e1c613752565b611e2533613214565b9050604051806040016040528060011515815260200182815250600460003373ffffffffffffffffffffffffffffffffffffffff1673ffffffffffffffffffffffffffffffffffffffff16815260200190815260200160002060008201518160000160006101000a81548160ff021916908315150217905550602082015181600101906003611eb5929190613774565b5090505050565b611ec4613752565b6000809054906101000a900473ffffffffffffffffffffffffffffffffffffffff1673ffffffffffffffffffffffffffffffffffffffff1663cd905dff6040518163ffffffff1660e01b815260040160206040518083038186803b158015611f2b57600080fd5b505afa158015611f3f573d6000803e3d6000fd5b505050506040513d6020811015611f5557600080fd5b8101908080519060200190929190505050611fbb576040517f08c379a00000000000000000000000000000000000000000000000000000000081526004018080602001828103825260258152602001806139836025913960400191505060405180910390fd5b600460003373ffffffffffffffffffffffffffffffffffffffff1673ffffffffffffffffffffffffffffffffffffffff16815260200190815260200160002060000160009054906101000a900460ff1661207d576040517f08c379a000000000000000000000000000000000000000000000000000000000815260040180806020018281038252601b8152602001807f4e6f74207265676973746572656420617320616e206f7261636c65000000000081525060200191505060405180910390fd5b600460003373ffffffffffffffffffffffffffffffffffffffff1673ffffffffffffffffffffffffffffffffffffffff16815260200190815260200160002060010160038060200260405190810160405280929190826003801561211c576020028201916000905b82829054906101000a900460ff1660ff16815260200190600101906020826000010492830192600103820291508084116120e55790505b5050505050905090565b670de0b6b3a764000081565b6000809054906101000a900473ffffffffffffffffffffffffffffffffffffffff1673ffffffffffffffffffffffffffffffffffffffff1663cd905dff6040518163ffffffff1660e01b815260040160206040518083038186803b15801561219957600080fd5b505afa1580156121ad573d6000803e3d6000fd5b505050506040513d60208110156121c357600080fd5b8101908080519060200190929190505050612229576040517f08c379a00000000000000000000000000000000000000000000000000000000081526004018080602001828103825260258152602001806139836025913960400191505060405180910390fd5b33600073ffffffffffffffffffffffffffffffffffffffff168173ffffffffffffffffffffffffffffffffffffffff1614156122cd576040517f08c379a000000000000000000000000000000000000000000000000000000000815260040180806020018281038252600f8152602001807f496e76616c69642061646472657373000000000000000000000000000000000081525060200191505060405180910390fd5b336000809054906101000a900473ffffffffffffffffffffffffffffffffffffffff1673ffffffffffffffffffffffffffffffffffffffff1663f3ba4e1b826040518263ffffffff1660e01b8152600401808273ffffffffffffffffffffffffffffffffffffffff1673ffffffffffffffffffffffffffffffffffffffff16815260200191505060206040518083038186803b15801561236c57600080fd5b505afa158015612380573d6000803e3d6000fd5b505050506040513d602081101561239657600080fd5b81019080805190602001909291905050506123fc576040517f08c379a000000000000000000000000000000000000000000000000000000000815260040180806020018281038252602d815260200180613956602d913960400191505060405180910390fd5b6000809054906101000a900473ffffffffffffffffffffffffffffffffffffffff1673ffffffffffffffffffffffffffffffffffffffff1663c5e16c1e338b8b8b8b8b8b8b6040518963ffffffff1660e01b8152600401808973ffffffffffffffffffffffffffffffffffffffff1673ffffffffffffffffffffffffffffffffffffffff16815260200180602001806020018060200185815260200184810384528b8b82818152602001925080828437600081840152601f19601f8201169050808301925050508481038352898982818152602001925080828437600081840152601f19601f8201169050808301925050508481038252878782818152602001925080828437600081840152601f19601f8201169050808301925050509b505050505050505050505050600060405180830381600087803b15801561254057600080fd5b505af1158015612554573d6000803e3d6000fd5b505050507f89a9f03eebe04f13795943cbdfd1e43e6326841c8962dde05c51a48a54db5691338a8a8a8a8a8a8a604051808973ffffffffffffffffffffffffffffffffffffffff1673ffffffffffffffffffffffffffffffffffffffff16815260200180602001806020018060200185815260200184810384528b8b82818152602001925080828437600081840152601f19601f8201169050808301925050508481038352898982818152602001925080828437600081840152601f19601f8201169050808301925050508481038252878782818152602001925080828437600081840152601f19601f8201169050808301925050509b50505050505050505050505060405180910390a1505050505050505050565b6000809054906101000a900473ffffffffffffffffffffffffffffffffffffffff1673ffffffffffffffffffffffffffffffffffffffff1663cd905dff6040518163ffffffff1660e01b815260040160206040518083038186803b1580156126d157600080fd5b505afa1580156126e5573d6000803e3d6000fd5b505050506040513d60208110156126fb57600080fd5b8101908080519060200190929190505050612761576040517f08c379a00000000000000000000000000000000000000000000000000000000081526004018080602001828103825260258152602001806139836025913960400191505060405180910390fd5b678ac7230489e8000034146127c1576040517f08c379a00000000000000000000000000000000000000000000000000000000081526004018080602001828103825260238152602001806139336023913960400191505060405180910390fd5b6000809054906101000a900473ffffffffffffffffffffffffffffffffffffffff1673ffffffffffffffffffffffffffffffffffffffff166108fc349081150290604051600060405180830381858888f19350505050158015612828573d6000803e3d6000fd5b506000809054906101000a900473ffffffffffffffffffffffffffffffffffffffff1673ffffffffffffffffffffffffffffffffffffffff16636fbb8798336040518263ffffffff1660e01b8152600401808273ffffffffffffffffffffffffffffffffffffffff1673ffffffffffffffffffffffffffffffffffffffff168152602001915050600060405180830381600087803b1580156128c957600080fd5b505af11580156128dd573d6000803e3d6000fd5b505050507fe3e3c2f23f7445131259937f93b9ed0c075fe06c9d702be2d7ac549d0ec5fc323334604051808373ffffffffffffffffffffffffffffffffffffffff1673ffffffffffffffffffffffffffffffffffffffff1681526020018281526020019250505060405180910390a1565b6000809054906101000a900473ffffffffffffffffffffffffffffffffffffffff1673ffffffffffffffffffffffffffffffffffffffff1663cd905dff6040518163ffffffff1660e01b815260040160206040518083038186803b1580156129b557600080fd5b505afa1580156129c9573d6000803e3d6000fd5b505050506040513d60208110156129df57600080fd5b8101908080519060200190929190505050612a45576040517f08c379a00000000000000000000000000000000000000000000000000000000081526004018080602001828103825260258152602001806139836025913960400191505060405180910390fd5b8560ff16600460003373ffffffffffffffffffffffffffffffffffffffff1673ffffffffffffffffffffffffffffffffffffffff168152602001908152602001600020600101600060038110612a9757fe5b602091828204019190069054906101000a900460ff1660ff161480612b2457508560ff16600460003373ffffffffffffffffffffffffffffffffffffffff1673ffffffffffffffffffffffffffffffffffffffff168152602001908152602001600020600101600160038110612b0957fe5b602091828204019190069054906101000a900460ff1660ff16145b80612b9757508560ff16600460003373ffffffffffffffffffffffffffffffffffffffff1673ffffffffffffffffffffffffffffffffffffffff168152602001908152602001600020600101600260038110612b7c57fe5b602091828204019190069054906101000a900460ff1660ff16145b612bec576040517f08c379a00000000000000000000000000000000000000000000000000000000081526004018080602001828103825260238152602001806139a86023913960400191505060405180910390fd5b60008686868686604051602001808660ff1660ff1660f81b81526001018573ffffffffffffffffffffffffffffffffffffffff1673ffffffffffffffffffffffffffffffffffffffff1660601b815260140184848082843780830192505050828152602001955050505050506040516020818303038152906040528051906020012090506005600082815260200190815260200160002060000160149054906101000a900460ff16612ce9576040517f08c379a000000000000000000000000000000000000000000000000000000000815260040180806020018281038252602f815260200180613882602f913960400191505060405180910390fd5b6005600082815260200190815260200160002060010160008360ff1660ff1681526020019081526020016000203390806001815401808255809150509060018203906000526020600020016000909192909190916101000a81548173ffffffffffffffffffffffffffffffffffffffff021916908373ffffffffffffffffffffffffffffffffffffffff160217905550507f43c853095c2752648493c88b4baac4d580d2594ffb00c6f1d4242d844514f7838686868686604051808673ffffffffffffffffffffffffffffffffffffffff1673ffffffffffffffffffffffffffffffffffffffff168152602001806020018481526020018360ff1660ff1681526020018281038252868682818152602001925080828437600081840152601f19601f820116905080830192505050965050505050505060405180910390a160036005600083815260200190815260200160002060010160008460ff1660ff1681526020019081526020016000208054905010612f5d577fe23f5229de535c091e3b7bec2665f5d698192d3b31393066e8987b7a05076b6c8686868686604051808673ffffffffffffffffffffffffffffffffffffffff1673ffffffffffffffffffffffffffffffffffffffff168152602001806020018481526020018360ff1660ff1681526020018281038252868682818152602001925080828437600081840152601f19601f820116905080830192505050965050505050505060405180910390a1612f5c8686868080601f016020809104026020016040519081016040528093929190818152602001838380828437600081840152601f19601f8201169050808301925050505050505085856133a0565b5b50505050505050565b60008060009054906101000a900473ffffffffffffffffffffffffffffffffffffffff1673ffffffffffffffffffffffffffffffffffffffff1663cd905dff6040518163ffffffff1660e01b815260040160206040518083038186803b158015612fcf57600080fd5b505afa158015612fe3573d6000803e3d6000fd5b505050506040513d6020811015612ff957600080fd5b8101908080519060200190929190505050905090565b600061301a336135d8565b905060008186868686604051602001808660ff1660ff1660f81b81526001018573ffffffffffffffffffffffffffffffffffffffff1673ffffffffffffffffffffffffffffffffffffffff1660601b8152601401848480828437808301925050508281526020019550505050505060405160208183030381529060405280519060200120905060405180604001604052803373ffffffffffffffffffffffffffffffffffffffff168152602001600115158152506005600083815260200190815260200160002060008201518160000160006101000a81548173ffffffffffffffffffffffffffffffffffffffff021916908373ffffffffffffffffffffffffffffffffffffffff16021790555060208201518160000160146101000a81548160ff0219169083151502179055509050507f3ed01f2c3fc24c6b329d931e35b03e390d23497d22b3f90e15b600343e93df118287878787604051808660ff1660ff1681526020018573ffffffffffffffffffffffffffffffffffffffff1673ffffffffffffffffffffffffffffffffffffffff168152602001806020018381526020018281038252858582818152602001925080828437600081840152601f19601f820116905080830192505050965050505050505060405180910390a1505050505050565b600081838161320b57fe5b04905092915050565b61321c613752565b613224613752565b61322d836135d8565b8160006003811061323a57fe5b602002019060ff16908160ff16815250508060006003811061325857fe5b60200201518160016003811061326a57fe5b602002019060ff16908160ff16815250505b8060006003811061328957fe5b602002015160ff168160016003811061329e57fe5b602002015160ff1614156132d8576132b5836135d8565b816001600381106132c257fe5b602002019060ff16908160ff168152505061327c565b806001600381106132e557fe5b6020020151816002600381106132f757fe5b602002019060ff16908160ff16815250505b8060006003811061331657fe5b602002015160ff168160026003811061332b57fe5b602002015160ff16148061336657508060016003811061334757fe5b602002015160ff168160026003811061335c57fe5b602002015160ff16145b1561339757613374836135d8565b8160026003811061338157fe5b602002019060ff16908160ff1681525050613309565b80915050919050565b6000809054906101000a900473ffffffffffffffffffffffffffffffffffffffff1673ffffffffffffffffffffffffffffffffffffffff1663cd905dff6040518163ffffffff1660e01b815260040160206040518083038186803b15801561340757600080fd5b505afa15801561341b573d6000803e3d6000fd5b505050506040513d602081101561343157600080fd5b8101908080519060200190929190505050613497576040517f08c379a00000000000000000000000000000000000000000000000000000000081526004018080602001828103825260258152602001806139836025913960400191505060405180910390fd5b6000809054906101000a900473ffffffffffffffffffffffffffffffffffffffff1673ffffffffffffffffffffffffffffffffffffffff1663e7bdde3b858585856040518563ffffffff1660e01b8152600401808573ffffffffffffffffffffffffffffffffffffffff1673ffffffffffffffffffffffffffffffffffffffff168152602001806020018481526020018360ff1660ff168152602001828103825285818151815260200191508051906020019080838360005b8381101561356b578082015181840152602081019050613550565b50505050905090810190601f1680156135985780820380516001836020036101000a031916815260200191505b5095505050505050600060405180830381600087803b1580156135ba57600080fd5b505af11580156135ce573d6000803e3d6000fd5b5050505050505050565b600080600a905060008160ff166003600081819054906101000a900460ff168092919060010191906101000a81548160ff021916908360ff16021790555060ff1643034085604051602001808381526020018273ffffffffffffffffffffffffffffffffffffffff1673ffffffffffffffffffffffffffffffffffffffff1660601b8152601401925050506040516020818303038152906040528051906020012060001c8161368357fe5b06905060fa600360009054906101000a900460ff1660ff1611156136be576000600360006101000a81548160ff021916908360ff1602179055505b8092505050919050565b828054828255906000526020600020908101928215613741579160200282015b828111156137405782518260006101000a81548173ffffffffffffffffffffffffffffffffffffffff021916908373ffffffffffffffffffffffffffffffffffffffff160217905550916020019190600101906136e8565b5b50905061374e919061380e565b5090565b6040518060600160405280600390602082028038833980820191505090505090565b826003601f016020900481019282156137fd5791602002820160005b838211156137ce57835183826101000a81548160ff021916908360ff1602179055509260200192600101602081600001049283019260010302613790565b80156137fb5782816101000a81549060ff02191690556001016020816000010492830192600103026137ce565b505b50905061380a9190613851565b5090565b61384e91905b8082111561384a57600081816101000a81549073ffffffffffffffffffffffffffffffffffffffff021916905550600101613814565b5090565b90565b61387e91905b8082111561387a57600081816101000a81549060ff021916905550600101613857565b5090565b9056fe466c69676874206f722074696d657374616d7020646f206e6f74206d61746368206f7261636c65207265717565737443616c6c65722068617320616c72656164792063616c6c656420746869732066756e6374696f6e2e496e737572616e63652076616c7565206973206e6f742077697468696e20746865206c696d69747350617373656e67657220616c726561647920626f7567687420696e737572616e636520666f72207468697320666c696768744e6f7420636f72726563742066756e64696e672076616c7565207375626d69747465644f6e6c79206578697374696e6720616e642066756e646564206169726c696e65732061726520616c6c6f776564436f6e74726163742069732063757272656e746c79206e6f74206f7065726174696f6e616c496e64657820646f6573206e6f74206d61746368206f7261636c652072657175657374a265627a7a72315820a0e6be2e1b115e895fa1bd1e19a328c9e11f90ae195074fefef3d5520ea1ce9c64736f6c63430005110032",
  "source": "pragma solidity ^0.5.0;\n\n// It's important to avoid vulnerabilities due to numeric overflow bugs\n// OpenZeppelin's SafeMath library, when used correctly, protects agains such bugs\n// More info: https://www.nccgroup.trust/us/about-us/newsroom-and-events/blog/2018/november/smart-contract-insecurity-bad-arithmetic/\n\nimport \"../node_modules/openzeppelin-solidity/contracts/math/SafeMath.sol\";\n\n/************************************************** */\n/* FlightSurety Smart Contract                      */\n/************************************************** */\ncontract FlightSuretyApp {\n  using SafeMath for uint256; // Allow SafeMath functions to be called for all uint256 types (similar to \"prototype\" in Javascript)\n\n  /********************************************************************************************/\n  /*                                       DATA VARIABLES                                     */\n  /********************************************************************************************/\n\n  // FlightSurety data contract\n  FlightSuretyData flightSuretyData;\n\n  // Account used to deploy contract\n  address private contractOwner;\n\n  // Multi-party consensus for airline registration\n  mapping(address => address[]) private registerAirlineMultiCalls;\n\n  // Registration of fifth and subsequent airlines requires multi-party consensus of 50% of registered airlines\n  uint constant REGISTER_AIRLINE_MULTI_CALL_THRESHOLD = 4;\n  uint constant REGISTER_AIRLINE_MULTI_CALL_CONSENSUS_DIVISOR = 2;\n\n  // Airline Ante: Airline can be registered, but does not participate in contract until it submits funding of 10 ether\n  uint constant AIRLINE_FUNDING_VALUE = 10 ether;\n\n  // Passenger Payment: Passengers may pay up to 1 ether for purchasing flight insurance\n  uint constant MAX_PASSENGER_INSURANCE_VALUE = 1 ether;\n\n  // Insurance multiplier in percentage\n  uint constant INSURANCE_MULTIPLIER = 150; // 150%\n\n  /********************************************************************************************/\n  /*                                       CONSTRUCTOR                                        */\n  /********************************************************************************************/\n\n  /**\n  * @dev Contract constructor\n  *\n  */\n  constructor(address dataContract) public {\n    contractOwner = msg.sender;\n    flightSuretyData = FlightSuretyData(dataContract);\n  }\n\n  /********************************************************************************************/\n  /*                                       FUNCTION MODIFIERS                                 */\n  /********************************************************************************************/\n\n  // Modifiers help avoid duplication of code. They are typically used to validate something\n  // before a function is allowed to be executed.\n\n  /**\n   * @dev Modifier that requires the \"operational\" boolean variable to be \"true\"\n   *      This is used on all state changing functions to pause the contract in \n   *      the event there is an issue that needs to be fixed\n   */\n  modifier requireIsOperational() {\n    // Modify to call data contract's status\n    require(flightSuretyData.isOperational(), \"Contract is currently not operational\");  \n    _;  // All modifiers require an \"_\" which indicates where the function body will be added\n  }\n\n  /**\n   * @dev Modifier that requires the \"ContractOwner\" account to be the function caller\n   */\n  modifier requireContractOwner() {\n    require(msg.sender == contractOwner, \"Caller is not contract owner\");\n    _;\n  }\n\n  /**\n   * @dev Modifier that requires airline to be funded\n   */\n  modifier requireAirlineIsFunded(address airline) {\n    require(flightSuretyData.isFundedAirline(airline), \"Only existing and funded airlines are allowed\");\n    _;\n  }\n\n  /**\n   * @dev Modifier that requires address to be valid\n   */\n  modifier requireValidAddress(address addr) {\n    require(addr != address(0), \"Invalid address\");\n    _;\n  }\n\n  /********************************************************************************************/\n  /*                                       EVENT DEFINITIONS                                  */\n  /********************************************************************************************/\n\n  event AirlineRegistered(string name, address addr, bool success, uint256 votes);\n  event AirlineFunded(address addr, uint amount);\n  event FlightRegistered(address airline, string flight, string from, string to, uint256 timestamp);\n  event InsuranceBought(address airline, string flight, uint256 timestamp, address passenger, uint256 amount, uint256 multiplier);\n\n  /********************************************************************************************/\n  /*                                       UTILITY FUNCTIONS                                  */\n  /********************************************************************************************/\n\n  function isOperational() external view returns(bool) {\n    return flightSuretyData.isOperational();\n  }\n\n  /********************************************************************************************/\n  /*                                     SMART CONTRACT FUNCTIONS                             */\n  /********************************************************************************************/\n\n  /**\n   * @dev Add an airline to the registration queue\n   * \n   * Multiparty Consensus: Only existing airline may register a new airline until there are at least four airlines registered\n   * Airline Ante: Airline can be registered, but does not participate in contract until it submits funding of 10 ether\n   */\n  function registerAirline(string memory name, address addr) public requireIsOperational requireValidAddress(addr) requireAirlineIsFunded(msg.sender) returns(bool success, uint256 votes) {\n    bool result = false;\n    address[] memory registeredAirlines = flightSuretyData.getRegisteredAirlines();\n\n    // Register first airline\n    if(registeredAirlines.length == 0) {\n      result = flightSuretyData.registerAirline(name, addr);\n    }\n    else if(registeredAirlines.length < REGISTER_AIRLINE_MULTI_CALL_THRESHOLD) {\n      result = flightSuretyData.registerAirline(name, addr);\n    }\n    // Multiparty Consensus: Registration of fifth and subsequent airlines requires multi-party consensus of 50% of registered airlines\n    else {\n      bool isDuplicate = false;\n\n      for(uint i = 0; i < registerAirlineMultiCalls[addr].length; i++) {\n        if (registerAirlineMultiCalls[addr][i] == msg.sender) {\n          isDuplicate = true;\n          break;\n        }\n      }\n\n      require(!isDuplicate, \"Caller has already called this function.\");\n\n      registerAirlineMultiCalls[addr].push(msg.sender);\n\n      if (registerAirlineMultiCalls[addr].length >= registeredAirlines.length.div(REGISTER_AIRLINE_MULTI_CALL_CONSENSUS_DIVISOR)) {\n        result = flightSuretyData.registerAirline(name, addr);\n        registerAirlineMultiCalls[addr] = new address[](0);\n      }\n    }\n\n    emit AirlineRegistered(name, addr, result, registerAirlineMultiCalls[addr].length);\n    return (result, registerAirlineMultiCalls[addr].length);\n  }\n\n  /**\n   * @dev Submit funding for airline\n   */   \n  function fundAirline() payable external requireIsOperational {\n    require(msg.value == AIRLINE_FUNDING_VALUE, \"Not correct funding value submitted\");\n\n    // Cast address to payable address\n    address(uint160(address(flightSuretyData))).transfer(msg.value);\n    \n    flightSuretyData.fundAirline(msg.sender);\n\n    emit AirlineFunded(msg.sender, msg.value);\n  }\n\n  /**\n   * @dev Register a future flight for insuring.\n   */  \n  function registerFlight(string calldata flight, string calldata from, string calldata to, uint256 timestamp) external requireIsOperational requireValidAddress(msg.sender) requireAirlineIsFunded(msg.sender) {\n    flightSuretyData.registerFlight(msg.sender, flight, from, to, timestamp);\n    emit FlightRegistered(msg.sender, flight, from, to, timestamp);\n  }\n\n  /**\n   * @dev Buy insurance for a flight\n   */   \n  function buyInsurance(address airline, string calldata flight, uint256 timestamp) external payable requireIsOperational {\n    require(msg.value > 0 && msg.value <= MAX_PASSENGER_INSURANCE_VALUE, \"Insurance value is not within the limits\");\n    require(flightSuretyData.isFlight(airline, flight, timestamp), \"Flight is not registered\");\n    require(!flightSuretyData.isLandedFlight(airline, flight, timestamp), \"Flight already landed\");\n    require(!flightSuretyData.isInsured(msg.sender, airline, flight, timestamp), \"Passenger already bought insurance for this flight\");\n  \n    // Cast address to payable address\n    address(uint160(address(flightSuretyData))).transfer(msg.value);\n    \n    flightSuretyData.buy(airline, flight, timestamp, msg.sender, msg.value, INSURANCE_MULTIPLIER);\n\n    emit InsuranceBought(airline, flight, timestamp, msg.sender, msg.value, INSURANCE_MULTIPLIER);\n  }\n\n  /**\n   * @dev Called after oracle has updated flight status\n   */  \n  function processFlightStatus(address airline, string memory flight, uint256 timestamp, uint8 statusCode) internal requireIsOperational {\n    flightSuretyData.processFlightStatus(airline, flight, timestamp, statusCode);\n  }\n\n  // Generate a request for oracles to fetch flight information\n  function fetchFlightStatus(address airline, string calldata flight, uint256 timestamp) external {\n    uint8 index = getRandomIndex(msg.sender);\n\n    // Generate a unique key for storing the request\n    bytes32 key = keccak256(abi.encodePacked(index, airline, flight, timestamp));\n    oracleResponses[key] = ResponseInfo({requester: msg.sender, isOpen: true});\n\n    emit OracleRequest(index, airline, flight, timestamp);\n  }\n\n  /**\n   * @dev Transfers eligible payout funds to insuree\n   */\n  function pay() public requireIsOperational {\n    flightSuretyData.pay(msg.sender);\n  }\n\n  /********************************************************************************************/\n  /*                                     ORACLE MANAGEMENT                                    */\n  /********************************************************************************************/\n\n  // Incremented to add pseudo-randomness at various points\n  uint8 private nonce = 0;    \n\n  // Fee to be paid when registering oracle\n  uint256 public constant REGISTRATION_FEE = 1 ether;\n\n  // Number of oracles that must respond for valid status\n  uint256 private constant MIN_RESPONSES = 3;\n\n  struct Oracle {\n    bool isRegistered;\n    uint8[3] indexes;        \n  }\n\n  // Track all registered oracles\n  mapping(address => Oracle) private oracles;\n\n  // Model for responses from oracles\n  struct ResponseInfo {\n    address requester;                              // Account that requested status\n    bool isOpen;                                    // If open, oracle responses are accepted\n    mapping(uint8 => address[]) responses;          // Mapping key is the status code reported\n                                                    // This lets us group responses and identify\n                                                    // the response that majority of the oracles\n  }\n\n  // Track all oracle responses\n  // Key = hash(index, flight, timestamp)\n  mapping(bytes32 => ResponseInfo) private oracleResponses;\n\n  // Event fired each time an oracle submits a response\n  event FlightStatusInfo(address airline, string flight, uint256 timestamp, uint8 status);\n\n  event OracleReport(address airline, string flight, uint256 timestamp, uint8 status);\n\n  // Event fired when flight status request is submitted\n  // Oracles track this and if they have a matching index\n  // they fetch data and submit a response\n  event OracleRequest(uint8 index, address airline, string flight, uint256 timestamp);\n\n  // Register an oracle with the contract\n  function registerOracle() external payable requireIsOperational {\n    // Require registration fee\n    require(msg.value >= REGISTRATION_FEE, \"Registration fee is required\");\n\n    uint8[3] memory indexes = generateIndexes(msg.sender);\n\n    oracles[msg.sender] = Oracle({isRegistered: true, indexes: indexes});\n  }\n\n  function getMyIndexes() view external requireIsOperational returns(uint8[3] memory) {\n    require(oracles[msg.sender].isRegistered, \"Not registered as an oracle\");\n    return oracles[msg.sender].indexes;\n  }\n\n  // Called by oracle when a response is available to an outstanding request\n  // For the response to be accepted, there must be a pending request that is open\n  // and matches one of the three Indexes randomly assigned to the oracle at the\n  // time of registration (i.e. uninvited oracles are not welcome)\n  function submitOracleResponse(uint8 index, address airline, string calldata flight, uint256 timestamp, uint8 statusCode) external requireIsOperational {\n    require((oracles[msg.sender].indexes[0] == index) || (oracles[msg.sender].indexes[1] == index) || (oracles[msg.sender].indexes[2] == index), \"Index does not match oracle request\");\n\n    bytes32 key = keccak256(abi.encodePacked(index, airline, flight, timestamp)); \n    require(oracleResponses[key].isOpen, \"Flight or timestamp do not match oracle request\");\n\n    oracleResponses[key].responses[statusCode].push(msg.sender);\n\n    // Information isn't considered verified until at least MIN_RESPONSES\n    // oracles respond with the *** same *** information\n    emit OracleReport(airline, flight, timestamp, statusCode);\n    if (oracleResponses[key].responses[statusCode].length >= MIN_RESPONSES) {\n      emit FlightStatusInfo(airline, flight, timestamp, statusCode);\n\n      // Handle flight status as appropriate\n      processFlightStatus(airline, flight, timestamp, statusCode);\n    }\n  }\n\n  function getFlightKey(address airline, string memory flight, uint256 timestamp) pure internal returns(bytes32) {\n    return keccak256(abi.encodePacked(airline, flight, timestamp));\n  }\n\n  // Returns array of three non-duplicating integers from 0-9\n  function generateIndexes(address account) internal returns(uint8[3] memory) {\n    uint8[3] memory indexes;\n    indexes[0] = getRandomIndex(account);\n    \n    indexes[1] = indexes[0];\n    while(indexes[1] == indexes[0]) {\n      indexes[1] = getRandomIndex(account);\n    }\n\n    indexes[2] = indexes[1];\n    while((indexes[2] == indexes[0]) || (indexes[2] == indexes[1])) {\n      indexes[2] = getRandomIndex(account);\n    }\n\n    return indexes;\n  }\n\n  // Returns array of three non-duplicating integers from 0-9\n  function getRandomIndex(address account) internal returns (uint8) {\n    uint8 maxValue = 10;\n\n    // Pseudo random number...the incrementing nonce adds variation\n    uint8 random = uint8(uint256(keccak256(abi.encodePacked(blockhash(block.number - nonce++), account))) % maxValue);\n\n    if (nonce > 250) {\n      nonce = 0;  // Can only fetch blockhashes for last 256 blocks so we adapt\n    }\n\n    return random;\n  }\n}\n\n// FlightSurety data contract interface\ncontract FlightSuretyData {\n  // Utility functions\n  function isOperational() public view returns(bool);\n  function setOperatingStatus(bool mode) external;\n\n  // Airlines\n  function registerAirline(string calldata name, address addr) external returns(bool);\n  function isAirline(address airline) external view returns(bool);\n  function isFundedAirline(address airline) external view returns(bool);\n  function getRegisteredAirlines() external view returns(address[] memory);\n  function fundAirline(address addr) payable external;\n\n  // Flights\n  function registerFlight(address airline, string calldata flight, string calldata from, string calldata to, uint256 timestamp) external;\n  function isFlight(address airline, string calldata flight, uint256 timestamp) external view returns(bool);\n  function isLandedFlight(address airline, string calldata flight, uint256 timestamp) external view returns(bool);\n  function processFlightStatus(address airline, string calldata flight, uint256 timestamp, uint8 statusCode) external;\n  function getFlightStatusCode(address airline, string calldata flight, uint256 timestamp) external view returns(uint8);\n\n  // Passengers\n  function buy(address airline, string calldata flight, uint256 timestamp, address passenger, uint256 amount, uint256 multiplier) external payable;\n  function isInsured(address passenger, address airline, string calldata flight, uint256 timestamp) external view returns (bool);\n  function pay(address passenger) external;\n}",
  "sourcePath": "/Users/sohardhchobera/Downloads/flightsurety-master/contracts/FlightSuretyApp.sol",
  "compiler": {
    "name": "solc",
    "version": "0.5.17+commit.d19bba13.Emscripten.clang"
  },
  "schemaVersion": "3.2.2",
  "updatedAt": "2020-07-18T05:30:41.180Z",
  "devdoc": {
    "methods": {
      "buyInsurance(address,string,uint256)": {
        "details": "Buy insurance for a flight"
      },
      "constructor": {
        "details": "Contract constructor  "
      },
      "fundAirline()": {
        "details": "Submit funding for airline"
      },
      "pay()": {
        "details": "Transfers eligible payout funds to insuree"
      },
      "registerAirline(string,address)": {
        "details": "Add an airline to the registration queue    * Multiparty Consensus: Only existing airline may register a new airline until there are at least four airlines registered Airline Ante: Airline can be registered, but does not participate in contract until it submits funding of 10 ether"
      },
      "registerFlight(string,string,string,uint256)": {
        "details": "Register a future flight for insuring."
      }
    }
  },
  "userdoc": {
    "methods": {
      "isOperational()": {
        "notice": "*****************************************************************************************"
      }
    },
    "notice": "************************************************ "
  }
}